{
  "_format": "hh-sol-artifact-1",
  "contractName": "CharacterNFT",
  "sourceName": "contracts/v2_contracts/CharacterNFT.sol",
  "abi": [
    {
      "inputs": [
        {
          "internalType": "uint256",
          "name": "maxSupply",
          "type": "uint256"
        },
        {
          "internalType": "uint256",
          "name": "maxMintPerAddress",
          "type": "uint256"
        },
        {
          "internalType": "address",
          "name": "_marketplace",
          "type": "address"
        }
      ],
      "stateMutability": "nonpayable",
      "type": "constructor"
    },
    {
      "inputs": [
        {
          "internalType": "address",
          "name": "sender",
          "type": "address"
        },
        {
          "internalType": "uint256",
          "name": "tokenId",
          "type": "uint256"
        },
        {
          "internalType": "address",
          "name": "owner",
          "type": "address"
        }
      ],
      "name": "ERC721IncorrectOwner",
      "type": "error"
    },
    {
      "inputs": [
        {
          "internalType": "address",
          "name": "operator",
          "type": "address"
        },
        {
          "internalType": "uint256",
          "name": "tokenId",
          "type": "uint256"
        }
      ],
      "name": "ERC721InsufficientApproval",
      "type": "error"
    },
    {
      "inputs": [
        {
          "internalType": "address",
          "name": "approver",
          "type": "address"
        }
      ],
      "name": "ERC721InvalidApprover",
      "type": "error"
    },
    {
      "inputs": [
        {
          "internalType": "address",
          "name": "operator",
          "type": "address"
        }
      ],
      "name": "ERC721InvalidOperator",
      "type": "error"
    },
    {
      "inputs": [
        {
          "internalType": "address",
          "name": "owner",
          "type": "address"
        }
      ],
      "name": "ERC721InvalidOwner",
      "type": "error"
    },
    {
      "inputs": [
        {
          "internalType": "address",
          "name": "receiver",
          "type": "address"
        }
      ],
      "name": "ERC721InvalidReceiver",
      "type": "error"
    },
    {
      "inputs": [
        {
          "internalType": "address",
          "name": "sender",
          "type": "address"
        }
      ],
      "name": "ERC721InvalidSender",
      "type": "error"
    },
    {
      "inputs": [
        {
          "internalType": "uint256",
          "name": "tokenId",
          "type": "uint256"
        }
      ],
      "name": "ERC721NonexistentToken",
      "type": "error"
    },
    {
      "inputs": [
        {
          "internalType": "address",
          "name": "owner",
          "type": "address"
        }
      ],
      "name": "OwnableInvalidOwner",
      "type": "error"
    },
    {
      "inputs": [
        {
          "internalType": "address",
          "name": "account",
          "type": "address"
        }
      ],
      "name": "OwnableUnauthorizedAccount",
      "type": "error"
    },
    {
      "anonymous": false,
      "inputs": [
        {
          "indexed": true,
          "internalType": "address",
          "name": "owner",
          "type": "address"
        },
        {
          "indexed": true,
          "internalType": "address",
          "name": "approved",
          "type": "address"
        },
        {
          "indexed": true,
          "internalType": "uint256",
          "name": "tokenId",
          "type": "uint256"
        }
      ],
      "name": "Approval",
      "type": "event"
    },
    {
      "anonymous": false,
      "inputs": [
        {
          "indexed": true,
          "internalType": "address",
          "name": "owner",
          "type": "address"
        },
        {
          "indexed": true,
          "internalType": "address",
          "name": "operator",
          "type": "address"
        },
        {
          "indexed": false,
          "internalType": "bool",
          "name": "approved",
          "type": "bool"
        }
      ],
      "name": "ApprovalForAll",
      "type": "event"
    },
    {
      "anonymous": false,
      "inputs": [
        {
          "indexed": false,
          "internalType": "uint256",
          "name": "_fromTokenId",
          "type": "uint256"
        },
        {
          "indexed": false,
          "internalType": "uint256",
          "name": "_toTokenId",
          "type": "uint256"
        }
      ],
      "name": "BatchMetadataUpdate",
      "type": "event"
    },
    {
      "anonymous": false,
      "inputs": [
        {
          "indexed": true,
          "internalType": "uint256",
          "name": "tokenId",
          "type": "uint256"
        },
        {
          "indexed": false,
          "internalType": "uint8",
          "name": "newLevel",
          "type": "uint8"
        }
      ],
      "name": "CharacterLevelUp",
      "type": "event"
    },
    {
      "anonymous": false,
      "inputs": [
        {
          "indexed": false,
          "internalType": "uint256",
          "name": "_tokenId",
          "type": "uint256"
        }
      ],
      "name": "MetadataUpdate",
      "type": "event"
    },
    {
      "anonymous": false,
      "inputs": [
        {
          "indexed": true,
          "internalType": "uint256",
          "name": "tokenId",
          "type": "uint256"
        },
        {
          "indexed": true,
          "internalType": "address",
          "name": "owner",
          "type": "address"
        },
        {
          "indexed": false,
          "internalType": "string",
          "name": "tokenURI",
          "type": "string"
        }
      ],
      "name": "MintedNewNFT",
      "type": "event"
    },
    {
      "anonymous": false,
      "inputs": [
        {
          "indexed": true,
          "internalType": "address",
          "name": "previousOwner",
          "type": "address"
        },
        {
          "indexed": true,
          "internalType": "address",
          "name": "newOwner",
          "type": "address"
        }
      ],
      "name": "OwnershipTransferred",
      "type": "event"
    },
    {
      "anonymous": false,
      "inputs": [
        {
          "indexed": true,
          "internalType": "address",
          "name": "from",
          "type": "address"
        },
        {
          "indexed": true,
          "internalType": "address",
          "name": "to",
          "type": "address"
        },
        {
          "indexed": true,
          "internalType": "uint256",
          "name": "tokenId",
          "type": "uint256"
        }
      ],
      "name": "Transfer",
      "type": "event"
    },
    {
      "inputs": [],
      "name": "MAX_MINT_PER_ADDRESS",
      "outputs": [
        {
          "internalType": "uint256",
          "name": "",
          "type": "uint256"
        }
      ],
      "stateMutability": "view",
      "type": "function"
    },
    {
      "inputs": [],
      "name": "MAX_SUPPLY",
      "outputs": [
        {
          "internalType": "uint256",
          "name": "",
          "type": "uint256"
        }
      ],
      "stateMutability": "view",
      "type": "function"
    },
    {
      "inputs": [
        {
          "internalType": "uint256",
          "name": "tokenId",
          "type": "uint256"
        },
        {
          "internalType": "uint32",
          "name": "experiencePoints",
          "type": "uint32"
        }
      ],
      "name": "addExperience",
      "outputs": [],
      "stateMutability": "nonpayable",
      "type": "function"
    },
    {
      "inputs": [
        {
          "internalType": "address",
          "name": "to",
          "type": "address"
        },
        {
          "internalType": "uint256",
          "name": "tokenId",
          "type": "uint256"
        }
      ],
      "name": "approve",
      "outputs": [],
      "stateMutability": "nonpayable",
      "type": "function"
    },
    {
      "inputs": [
        {
          "internalType": "address",
          "name": "owner",
          "type": "address"
        }
      ],
      "name": "balanceOf",
      "outputs": [
        {
          "internalType": "uint256",
          "name": "",
          "type": "uint256"
        }
      ],
      "stateMutability": "view",
      "type": "function"
    },
    {
      "inputs": [
        {
          "internalType": "uint256",
          "name": "",
          "type": "uint256"
        }
      ],
      "name": "characterAttributes",
      "outputs": [
        {
          "internalType": "uint8",
          "name": "level",
          "type": "uint8"
        },
        {
          "internalType": "uint16",
          "name": "strength",
          "type": "uint16"
        },
        {
          "internalType": "uint16",
          "name": "agility",
          "type": "uint16"
        },
        {
          "internalType": "uint16",
          "name": "intelligence",
          "type": "uint16"
        },
        {
          "internalType": "string",
          "name": "characterClass",
          "type": "string"
        },
        {
          "internalType": "uint32",
          "name": "experience",
          "type": "uint32"
        }
      ],
      "stateMutability": "view",
      "type": "function"
    },
    {
      "inputs": [
        {
          "internalType": "uint256",
          "name": "tokenId",
          "type": "uint256"
        }
      ],
      "name": "getApproved",
      "outputs": [
        {
          "internalType": "address",
          "name": "",
          "type": "address"
        }
      ],
      "stateMutability": "view",
      "type": "function"
    },
    {
      "inputs": [
        {
          "internalType": "uint256",
          "name": "tokenId",
          "type": "uint256"
        }
      ],
      "name": "getCharacterAttributes",
      "outputs": [
        {
          "components": [
            {
              "internalType": "uint8",
              "name": "level",
              "type": "uint8"
            },
            {
              "internalType": "uint16",
              "name": "strength",
              "type": "uint16"
            },
            {
              "internalType": "uint16",
              "name": "agility",
              "type": "uint16"
            },
            {
              "internalType": "uint16",
              "name": "intelligence",
              "type": "uint16"
            },
            {
              "internalType": "string",
              "name": "characterClass",
              "type": "string"
            },
            {
              "internalType": "uint32",
              "name": "experience",
              "type": "uint32"
            }
          ],
          "internalType": "struct CharacterNFT.CharacterAttributes",
          "name": "",
          "type": "tuple"
        }
      ],
      "stateMutability": "view",
      "type": "function"
    },
    {
      "inputs": [
        {
          "internalType": "address",
          "name": "owner",
          "type": "address"
        },
        {
          "internalType": "address",
          "name": "operator",
          "type": "address"
        }
      ],
      "name": "isApprovedForAll",
      "outputs": [
        {
          "internalType": "bool",
          "name": "",
          "type": "bool"
        }
      ],
      "stateMutability": "view",
      "type": "function"
    },
    {
      "inputs": [],
      "name": "marketplace",
      "outputs": [
        {
          "internalType": "address",
          "name": "",
          "type": "address"
        }
      ],
      "stateMutability": "view",
      "type": "function"
    },
    {
      "inputs": [
        {
          "internalType": "string",
          "name": "tokenURI",
          "type": "string"
        },
        {
          "internalType": "string",
          "name": "_class",
          "type": "string"
        },
        {
          "internalType": "uint16",
          "name": "_strength",
          "type": "uint16"
        },
        {
          "internalType": "uint16",
          "name": "_agility",
          "type": "uint16"
        },
        {
          "internalType": "uint16",
          "name": "_intelligence",
          "type": "uint16"
        }
      ],
      "name": "mintCharacterNFT",
      "outputs": [
        {
          "internalType": "uint256",
          "name": "",
          "type": "uint256"
        }
      ],
      "stateMutability": "nonpayable",
      "type": "function"
    },
    {
      "inputs": [
        {
          "internalType": "string",
          "name": "tokenURI",
          "type": "string"
        }
      ],
      "name": "mintNFT",
      "outputs": [
        {
          "internalType": "uint256",
          "name": "",
          "type": "uint256"
        }
      ],
      "stateMutability": "nonpayable",
      "type": "function"
    },
    {
      "inputs": [
        {
          "internalType": "address",
          "name": "owner",
          "type": "address"
        }
      ],
      "name": "mintedByAddress",
      "outputs": [
        {
          "internalType": "uint256",
          "name": "",
          "type": "uint256"
        }
      ],
      "stateMutability": "view",
      "type": "function"
    },
    {
      "inputs": [],
      "name": "name",
      "outputs": [
        {
          "internalType": "string",
          "name": "",
          "type": "string"
        }
      ],
      "stateMutability": "view",
      "type": "function"
    },
    {
      "inputs": [],
      "name": "owner",
      "outputs": [
        {
          "internalType": "address",
          "name": "",
          "type": "address"
        }
      ],
      "stateMutability": "view",
      "type": "function"
    },
    {
      "inputs": [
        {
          "internalType": "uint256",
          "name": "tokenId",
          "type": "uint256"
        }
      ],
      "name": "ownerOf",
      "outputs": [
        {
          "internalType": "address",
          "name": "",
          "type": "address"
        }
      ],
      "stateMutability": "view",
      "type": "function"
    },
    {
      "inputs": [],
      "name": "renounceOwnership",
      "outputs": [],
      "stateMutability": "nonpayable",
      "type": "function"
    },
    {
      "inputs": [
        {
          "internalType": "address",
          "name": "from",
          "type": "address"
        },
        {
          "internalType": "address",
          "name": "to",
          "type": "address"
        },
        {
          "internalType": "uint256",
          "name": "tokenId",
          "type": "uint256"
        }
      ],
      "name": "safeTransferFrom",
      "outputs": [],
      "stateMutability": "nonpayable",
      "type": "function"
    },
    {
      "inputs": [
        {
          "internalType": "address",
          "name": "from",
          "type": "address"
        },
        {
          "internalType": "address",
          "name": "to",
          "type": "address"
        },
        {
          "internalType": "uint256",
          "name": "tokenId",
          "type": "uint256"
        },
        {
          "internalType": "bytes",
          "name": "data",
          "type": "bytes"
        }
      ],
      "name": "safeTransferFrom",
      "outputs": [],
      "stateMutability": "nonpayable",
      "type": "function"
    },
    {
      "inputs": [
        {
          "internalType": "address",
          "name": "operator",
          "type": "address"
        },
        {
          "internalType": "bool",
          "name": "approved",
          "type": "bool"
        }
      ],
      "name": "setApprovalForAll",
      "outputs": [],
      "stateMutability": "nonpayable",
      "type": "function"
    },
    {
      "inputs": [
        {
          "internalType": "address",
          "name": "_marketplace",
          "type": "address"
        }
      ],
      "name": "setMarketplace",
      "outputs": [],
      "stateMutability": "nonpayable",
      "type": "function"
    },
    {
      "inputs": [
        {
          "internalType": "bytes4",
          "name": "interfaceId",
          "type": "bytes4"
        }
      ],
      "name": "supportsInterface",
      "outputs": [
        {
          "internalType": "bool",
          "name": "",
          "type": "bool"
        }
      ],
      "stateMutability": "view",
      "type": "function"
    },
    {
      "inputs": [],
      "name": "symbol",
      "outputs": [
        {
          "internalType": "string",
          "name": "",
          "type": "string"
        }
      ],
      "stateMutability": "view",
      "type": "function"
    },
    {
      "inputs": [
        {
          "internalType": "uint256",
          "name": "tokenId",
          "type": "uint256"
        }
      ],
      "name": "tokenURI",
      "outputs": [
        {
          "internalType": "string",
          "name": "",
          "type": "string"
        }
      ],
      "stateMutability": "view",
      "type": "function"
    },
    {
      "inputs": [
        {
          "internalType": "address",
          "name": "from",
          "type": "address"
        },
        {
          "internalType": "address",
          "name": "to",
          "type": "address"
        },
        {
          "internalType": "uint256",
          "name": "tokenId",
          "type": "uint256"
        }
      ],
      "name": "transferFrom",
      "outputs": [],
      "stateMutability": "nonpayable",
      "type": "function"
    },
    {
      "inputs": [
        {
          "internalType": "address",
          "name": "newOwner",
          "type": "address"
        }
      ],
      "name": "transferOwnership",
      "outputs": [],
      "stateMutability": "nonpayable",
      "type": "function"
    }
  ],
  "bytecode": "0x60c060405234801561001057600080fd5b50604051614185380380614185833981810160405281019061003291906103ce565b6040518060400160405280601081526020017f47616d654368617261637465724e4654000000000000000000000000000000008152506040518060400160405280600581526020017f47434e465400000000000000000000000000000000000000000000000000000081525084848433858581600090816100b39190610667565b5080600190816100c39190610667565b505050600073ffffffffffffffffffffffffffffffffffffffff168173ffffffffffffffffffffffffffffffffffffffff16036101385760006040517f1e4fbdf700000000000000000000000000000000000000000000000000000000815260040161012f9190610748565b60405180910390fd5b6101478161026f60201b60201c565b506000831161018b576040517f08c379a0000000000000000000000000000000000000000000000000000000008152600401610182906107e6565b60405180910390fd5b600082116101ce576040517f08c379a00000000000000000000000000000000000000000000000000000000081526004016101c590610878565b60405180910390fd5b82821115610211576040517f08c379a00000000000000000000000000000000000000000000000000000000081526004016102089061090a565b60405180910390fd5b82608081815250508160a0818152505080600a60006101000a81548173ffffffffffffffffffffffffffffffffffffffff021916908373ffffffffffffffffffffffffffffffffffffffff160217905550505050505050505061092a565b6000600760009054906101000a900473ffffffffffffffffffffffffffffffffffffffff16905081600760006101000a81548173ffffffffffffffffffffffffffffffffffffffff021916908373ffffffffffffffffffffffffffffffffffffffff1602179055508173ffffffffffffffffffffffffffffffffffffffff168173ffffffffffffffffffffffffffffffffffffffff167f8be0079c531659141344cd1fd0a4f28419497f9722a3daafe3b4186f6b6457e060405160405180910390a35050565b600080fd5b6000819050919050565b61034d8161033a565b811461035857600080fd5b50565b60008151905061036a81610344565b92915050565b600073ffffffffffffffffffffffffffffffffffffffff82169050919050565b600061039b82610370565b9050919050565b6103ab81610390565b81146103b657600080fd5b50565b6000815190506103c8816103a2565b92915050565b6000806000606084860312156103e7576103e6610335565b5b60006103f58682870161035b565b93505060206104068682870161035b565b9250506040610417868287016103b9565b9150509250925092565b600081519050919050565b7f4e487b7100000000000000000000000000000000000000000000000000000000600052604160045260246000fd5b7f4e487b7100000000000000000000000000000000000000000000000000000000600052602260045260246000fd5b600060028204905060018216806104a257607f821691505b6020821081036104b5576104b461045b565b5b50919050565b60008190508160005260206000209050919050565b60006020601f8301049050919050565b600082821b905092915050565b60006008830261051d7fffffffffffffffffffffffffffffffffffffffffffffffffffffffffffffffff826104e0565b61052786836104e0565b95508019841693508086168417925050509392505050565b6000819050919050565b600061056461055f61055a8461033a565b61053f565b61033a565b9050919050565b6000819050919050565b61057e83610549565b61059261058a8261056b565b8484546104ed565b825550505050565b600090565b6105a761059a565b6105b2818484610575565b505050565b5b818110156105d6576105cb60008261059f565b6001810190506105b8565b5050565b601f82111561061b576105ec816104bb565b6105f5846104d0565b81016020851015610604578190505b610618610610856104d0565b8301826105b7565b50505b505050565b600082821c905092915050565b600061063e60001984600802610620565b1980831691505092915050565b6000610657838361062d565b9150826002028217905092915050565b61067082610421565b67ffffffffffffffff8111156106895761068861042c565b5b610693825461048a565b61069e8282856105da565b600060209050601f8311600181146106d157600084156106bf578287015190505b6106c9858261064b565b865550610731565b601f1984166106df866104bb565b60005b82811015610707578489015182556001820191506020850194506020810190506106e2565b868310156107245784890151610720601f89168261062d565b8355505b6001600288020188555050505b505050505050565b61074281610390565b82525050565b600060208201905061075d6000830184610739565b92915050565b600082825260208201905092915050565b7f4d617820737570706c79206d7573742062652067726561746572207468616e2060008201527f3000000000000000000000000000000000000000000000000000000000000000602082015250565b60006107d0602183610763565b91506107db82610774565b604082019050919050565b600060208201905081810360008301526107ff816107c3565b9050919050565b7f4d6178206d696e74207065722061646472657373206d7573742062652067726560008201527f61746572207468616e2030000000000000000000000000000000000000000000602082015250565b6000610862602b83610763565b915061086d82610806565b604082019050919050565b6000602082019050818103600083015261089181610855565b9050919050565b7f4d6178206d696e74207065722061646472657373206d757374206265206c6f7760008201527f6572207468616e206d617820737570706c790000000000000000000000000000602082015250565b60006108f4603283610763565b91506108ff82610898565b604082019050919050565b60006020820190508181036000830152610923816108e7565b9050919050565b60805160a05161382861095d600039600081816109c20152611fa301526000818161099e0152611f3f01526138286000f3fe608060405234801561001057600080fd5b506004361061018e5760003560e01c806373ad6c2d116100de578063b903e6ed11610097578063d0e60cff11610071578063d0e60cff1461049a578063e985e9c5146104ca578063f2fde38b146104fa578063fb37e883146105165761018e565b8063b903e6ed14610405578063c6815d8e1461043a578063c87b56dd1461046a5761018e565b806373ad6c2d146103575780638da5cb5b1461037357806395d89b4114610391578063a22cb465146103af578063abc8c7af146103cb578063b88d4fde146103e95761018e565b806332cb6b0c1161014b57806342842e0e1161012557806342842e0e146102d15780636352211e146102ed57806370a082311461031d578063715018a61461034d5761018e565b806332cb6b0c146102655780633acd6cb2146102835780633ca63f2c146102a15761018e565b806301ffc9a71461019357806306fdde03146101c3578063081812fc146101e1578063095ea7b31461021157806323b872dd1461022d57806328743f8f14610249575b600080fd5b6101ad60048036038101906101a891906126d6565b610546565b6040516101ba919061271e565b60405180910390f35b6101cb6105a7565b6040516101d891906127c9565b60405180910390f35b6101fb60048036038101906101f69190612821565b610639565b604051610208919061288f565b60405180910390f35b61022b600480360381019061022691906128d6565b610655565b005b61024760048036038101906102429190612916565b61066b565b005b610263600480360381019061025e91906129a5565b61076d565b005b61026d61099c565b60405161027a91906129f4565b60405180910390f35b61028b6109c0565b60405161029891906129f4565b60405180910390f35b6102bb60048036038101906102b69190612a0f565b6109e4565b6040516102c891906129f4565b60405180910390f35b6102eb60048036038101906102e69190612916565b610a2d565b005b61030760048036038101906103029190612821565b610a4d565b604051610314919061288f565b60405180910390f35b61033760048036038101906103329190612a0f565b610a5f565b60405161034491906129f4565b60405180910390f35b610355610b19565b005b610371600480360381019061036c9190612a0f565b610b2d565b005b61037b610b79565b604051610388919061288f565b60405180910390f35b610399610ba3565b6040516103a691906127c9565b60405180910390f35b6103c960048036038101906103c49190612a68565b610c35565b005b6103d3610c4b565b6040516103e0919061288f565b60405180910390f35b61040360048036038101906103fe9190612bdd565b610c71565b005b61041f600480360381019061041a9190612821565b610c96565b60405161043196959493929190612ca8565b60405180910390f35b610454600480360381019061044f9190612ddd565b610da1565b60405161046191906129f4565b60405180910390f35b610484600480360381019061047f9190612821565b610edd565b60405161049191906127c9565b60405180910390f35b6104b460048036038101906104af9190612821565b610ff0565b6040516104c19190612f90565b60405180910390f35b6104e460048036038101906104df9190612fb2565b6111c9565b6040516104f1919061271e565b60405180910390f35b610514600480360381019061050f9190612a0f565b61125d565b005b610530600480360381019061052b9190612ff2565b6112e3565b60405161053d91906129f4565b60405180910390f35b6000634906490660e01b7bffffffffffffffffffffffffffffffffffffffffffffffffffffffff1916827bffffffffffffffffffffffffffffffffffffffffffffffffffffffff191614806105a0575061059f82611330565b5b9050919050565b6060600080546105b69061306a565b80601f01602080910402602001604051908101604052809291908181526020018280546105e29061306a565b801561062f5780601f106106045761010080835404028352916020019161062f565b820191906000526020600020905b81548152906001019060200180831161061257829003601f168201915b5050505050905090565b600061064482611412565b5061064e8261149a565b9050919050565b61066782826106626114d7565b6114df565b5050565b600073ffffffffffffffffffffffffffffffffffffffff168273ffffffffffffffffffffffffffffffffffffffff16036106dd5760006040517f64a0ae920000000000000000000000000000000000000000000000000000000081526004016106d4919061288f565b60405180910390fd5b60006106f183836106ec6114d7565b6114f1565b90508373ffffffffffffffffffffffffffffffffffffffff168173ffffffffffffffffffffffffffffffffffffffff1614610767578382826040517f64283d7b00000000000000000000000000000000000000000000000000000000815260040161075e9392919061309b565b60405180910390fd5b50505050565b3373ffffffffffffffffffffffffffffffffffffffff1661078d83610a4d565b73ffffffffffffffffffffffffffffffffffffffff16146107e3576040517f08c379a00000000000000000000000000000000000000000000000000000000081526004016107da90613144565b60405180910390fd5b6000600b60008481526020019081526020016000209050818160020160008282829054906101000a900463ffffffff1661081d9190613193565b92506101000a81548163ffffffff021916908363ffffffff16021790555060006103e88260020160009054906101000a900463ffffffff1661085f91906131fa565b600161086b9190613193565b90508160000160009054906101000a900460ff1660ff168160ff16111561099657808260000160006101000a81548160ff021916908360ff16021790555060028260000160018282829054906101000a900461ffff166108cb919061322b565b92506101000a81548161ffff021916908361ffff16021790555060028260000160038282829054906101000a900461ffff16610907919061322b565b92506101000a81548161ffff021916908361ffff16021790555060028260000160058282829054906101000a900461ffff16610943919061322b565b92506101000a81548161ffff021916908361ffff160217905550837fdcf862513ca1d153dc4dd42f1a5e42acdac4ab3970bd7a7688dddc657bef84ac8260405161098d9190613261565b60405180910390a25b50505050565b7f000000000000000000000000000000000000000000000000000000000000000081565b7f000000000000000000000000000000000000000000000000000000000000000081565b6000600960008373ffffffffffffffffffffffffffffffffffffffff1673ffffffffffffffffffffffffffffffffffffffff168152602001908152602001600020549050919050565b610a4883838360405180602001604052806000815250610c71565b505050565b6000610a5882611412565b9050919050565b60008073ffffffffffffffffffffffffffffffffffffffff168273ffffffffffffffffffffffffffffffffffffffff1603610ad25760006040517f89c62b64000000000000000000000000000000000000000000000000000000008152600401610ac9919061288f565b60405180910390fd5b600360008373ffffffffffffffffffffffffffffffffffffffff1673ffffffffffffffffffffffffffffffffffffffff168152602001908152602001600020549050919050565b610b2161170b565b610b2b6000611792565b565b610b3561170b565b80600a60006101000a81548173ffffffffffffffffffffffffffffffffffffffff021916908373ffffffffffffffffffffffffffffffffffffffff16021790555050565b6000600760009054906101000a900473ffffffffffffffffffffffffffffffffffffffff16905090565b606060018054610bb29061306a565b80601f0160208091040260200160405190810160405280929190818152602001828054610bde9061306a565b8015610c2b5780601f10610c0057610100808354040283529160200191610c2b565b820191906000526020600020905b815481529060010190602001808311610c0e57829003601f168201915b5050505050905090565b610c47610c406114d7565b8383611858565b5050565b600a60009054906101000a900473ffffffffffffffffffffffffffffffffffffffff1681565b610c7c84848461066b565b610c90610c876114d7565b858585856119c7565b50505050565b600b6020528060005260406000206000915090508060000160009054906101000a900460ff16908060000160019054906101000a900461ffff16908060000160039054906101000a900461ffff16908060000160059054906101000a900461ffff1690806001018054610d089061306a565b80601f0160208091040260200160405190810160405280929190818152602001828054610d349061306a565b8015610d815780601f10610d5657610100808354040283529160200191610d81565b820191906000526020600020905b815481529060010190602001808311610d6457829003601f168201915b5050505050908060020160009054906101000a900463ffffffff16905086565b600080610dad87611b78565b90506040518060c00160405280600160ff1681526020018661ffff1681526020018561ffff1681526020018461ffff168152602001878152602001600063ffffffff16815250600b600083815260200190815260200160002060008201518160000160006101000a81548160ff021916908360ff16021790555060208201518160000160016101000a81548161ffff021916908361ffff16021790555060408201518160000160036101000a81548161ffff021916908361ffff16021790555060608201518160000160056101000a81548161ffff021916908361ffff1602179055506080820151816001019081610ea59190613428565b5060a08201518160020160006101000a81548163ffffffff021916908363ffffffff1602179055509050508091505095945050505050565b6060610ee882611412565b506000600660008481526020019081526020016000208054610f099061306a565b80601f0160208091040260200160405190810160405280929190818152602001828054610f359061306a565b8015610f825780601f10610f5757610100808354040283529160200191610f82565b820191906000526020600020905b815481529060010190602001808311610f6557829003601f168201915b505050505090506000610f93611b8b565b90506000815103610fa8578192505050610feb565b600082511115610fdd578082604051602001610fc5929190613536565b60405160208183030381529060405292505050610feb565b610fe684611ba2565b925050505b919050565b610ff861261f565b600073ffffffffffffffffffffffffffffffffffffffff1661101983611c0b565b73ffffffffffffffffffffffffffffffffffffffff160361106f576040517f08c379a0000000000000000000000000000000000000000000000000000000008152600401611066906135a6565b60405180910390fd5b600b60008381526020019081526020016000206040518060c00160405290816000820160009054906101000a900460ff1660ff1660ff1681526020016000820160019054906101000a900461ffff1661ffff1661ffff1681526020016000820160039054906101000a900461ffff1661ffff1661ffff1681526020016000820160059054906101000a900461ffff1661ffff1661ffff16815260200160018201805461111a9061306a565b80601f01602080910402602001604051908101604052809291908181526020018280546111469061306a565b80156111935780601f1061116857610100808354040283529160200191611193565b820191906000526020600020905b81548152906001019060200180831161117657829003601f168201915b505050505081526020016002820160009054906101000a900463ffffffff1663ffffffff1663ffffffff16815250509050919050565b6000600560008473ffffffffffffffffffffffffffffffffffffffff1673ffffffffffffffffffffffffffffffffffffffff16815260200190815260200160002060008373ffffffffffffffffffffffffffffffffffffffff1673ffffffffffffffffffffffffffffffffffffffff16815260200190815260200160002060009054906101000a900460ff16905092915050565b61126561170b565b600073ffffffffffffffffffffffffffffffffffffffff168173ffffffffffffffffffffffffffffffffffffffff16036112d75760006040517f1e4fbdf70000000000000000000000000000000000000000000000000000000081526004016112ce919061288f565b60405180910390fd5b6112e081611792565b50565b6000611329826040518060400160405280600a81526020017f416476656e747572657200000000000000000000000000000000000000000000815250600a80600a610da1565b9050919050565b60007f80ac58cd000000000000000000000000000000000000000000000000000000007bffffffffffffffffffffffffffffffffffffffffffffffffffffffff1916827bffffffffffffffffffffffffffffffffffffffffffffffffffffffff191614806113fb57507f5b5e139f000000000000000000000000000000000000000000000000000000007bffffffffffffffffffffffffffffffffffffffffffffffffffffffff1916827bffffffffffffffffffffffffffffffffffffffffffffffffffffffff1916145b8061140b575061140a82611c48565b5b9050919050565b60008061141e83611c0b565b9050600073ffffffffffffffffffffffffffffffffffffffff168173ffffffffffffffffffffffffffffffffffffffff160361149157826040517f7e27328900000000000000000000000000000000000000000000000000000000815260040161148891906129f4565b60405180910390fd5b80915050919050565b60006004600083815260200190815260200160002060009054906101000a900473ffffffffffffffffffffffffffffffffffffffff169050919050565b600033905090565b6114ec8383836001611cb2565b505050565b6000806114fd84611c0b565b9050600073ffffffffffffffffffffffffffffffffffffffff168373ffffffffffffffffffffffffffffffffffffffff161461153f5761153e818486611e77565b5b600073ffffffffffffffffffffffffffffffffffffffff168173ffffffffffffffffffffffffffffffffffffffff16146115d057611581600085600080611cb2565b6001600360008373ffffffffffffffffffffffffffffffffffffffff1673ffffffffffffffffffffffffffffffffffffffff168152602001908152602001600020600082825403925050819055505b600073ffffffffffffffffffffffffffffffffffffffff168573ffffffffffffffffffffffffffffffffffffffff1614611653576001600360008773ffffffffffffffffffffffffffffffffffffffff1673ffffffffffffffffffffffffffffffffffffffff168152602001908152602001600020600082825401925050819055505b846002600086815260200190815260200160002060006101000a81548173ffffffffffffffffffffffffffffffffffffffff021916908373ffffffffffffffffffffffffffffffffffffffff160217905550838573ffffffffffffffffffffffffffffffffffffffff168273ffffffffffffffffffffffffffffffffffffffff167fddf252ad1be2c89b69c2b068fc378daa952ba7f163c4a11628f55a4df523b3ef60405160405180910390a4809150509392505050565b6117136114d7565b73ffffffffffffffffffffffffffffffffffffffff16611731610b79565b73ffffffffffffffffffffffffffffffffffffffff1614611790576117546114d7565b6040517f118cdaa7000000000000000000000000000000000000000000000000000000008152600401611787919061288f565b60405180910390fd5b565b6000600760009054906101000a900473ffffffffffffffffffffffffffffffffffffffff16905081600760006101000a81548173ffffffffffffffffffffffffffffffffffffffff021916908373ffffffffffffffffffffffffffffffffffffffff1602179055508173ffffffffffffffffffffffffffffffffffffffff168173ffffffffffffffffffffffffffffffffffffffff167f8be0079c531659141344cd1fd0a4f28419497f9722a3daafe3b4186f6b6457e060405160405180910390a35050565b600073ffffffffffffffffffffffffffffffffffffffff168273ffffffffffffffffffffffffffffffffffffffff16036118c957816040517f5b08ba180000000000000000000000000000000000000000000000000000000081526004016118c0919061288f565b60405180910390fd5b80600560008573ffffffffffffffffffffffffffffffffffffffff1673ffffffffffffffffffffffffffffffffffffffff16815260200190815260200160002060008473ffffffffffffffffffffffffffffffffffffffff1673ffffffffffffffffffffffffffffffffffffffff16815260200190815260200160002060006101000a81548160ff0219169083151502179055508173ffffffffffffffffffffffffffffffffffffffff168373ffffffffffffffffffffffffffffffffffffffff167f17307eab39ab6107e8899845ad3d59bd9653f200f220920489ca2b5937696c31836040516119ba919061271e565b60405180910390a3505050565b60008373ffffffffffffffffffffffffffffffffffffffff163b1115611b71578273ffffffffffffffffffffffffffffffffffffffff1663150b7a02868685856040518563ffffffff1660e01b8152600401611a26949392919061361b565b6020604051808303816000875af1925050508015611a6257506040513d601f19601f82011682018060405250810190611a5f919061367c565b60015b611ae6573d8060008114611a92576040519150601f19603f3d011682016040523d82523d6000602084013e611a97565b606091505b506000815103611ade57836040517f64a0ae92000000000000000000000000000000000000000000000000000000008152600401611ad5919061288f565b60405180910390fd5b805181602001fd5b63150b7a0260e01b7bffffffffffffffffffffffffffffffffffffffffffffffffffffffff1916817bffffffffffffffffffffffffffffffffffffffffffffffffffffffff191614611b6f57836040517f64a0ae92000000000000000000000000000000000000000000000000000000008152600401611b66919061288f565b60405180910390fd5b505b5050505050565b6000611b843383611f3b565b9050919050565b606060405180602001604052806000815250905090565b6060611bad82611412565b506000611bb8611b8b565b90506000815111611bd85760405180602001604052806000815250611c03565b80611be2846121a6565b604051602001611bf3929190613536565b6040516020818303038152906040525b915050919050565b60006002600083815260200190815260200160002060009054906101000a900473ffffffffffffffffffffffffffffffffffffffff169050919050565b60007f01ffc9a7000000000000000000000000000000000000000000000000000000007bffffffffffffffffffffffffffffffffffffffffffffffffffffffff1916827bffffffffffffffffffffffffffffffffffffffffffffffffffffffff1916149050919050565b8080611ceb5750600073ffffffffffffffffffffffffffffffffffffffff168273ffffffffffffffffffffffffffffffffffffffff1614155b15611e1f576000611cfb84611412565b9050600073ffffffffffffffffffffffffffffffffffffffff168373ffffffffffffffffffffffffffffffffffffffff1614158015611d6657508273ffffffffffffffffffffffffffffffffffffffff168173ffffffffffffffffffffffffffffffffffffffff1614155b8015611d795750611d7781846111c9565b155b15611dbb57826040517fa9fbf51f000000000000000000000000000000000000000000000000000000008152600401611db2919061288f565b60405180910390fd5b8115611e1d57838573ffffffffffffffffffffffffffffffffffffffff168273ffffffffffffffffffffffffffffffffffffffff167f8c5be1e5ebec7d5bd14f71427d1e84f3dd0314c0f7b2291e5b200ac8c7c3b92560405160405180910390a45b505b836004600085815260200190815260200160002060006101000a81548173ffffffffffffffffffffffffffffffffffffffff021916908373ffffffffffffffffffffffffffffffffffffffff16021790555050505050565b611e82838383612274565b611f3657600073ffffffffffffffffffffffffffffffffffffffff168373ffffffffffffffffffffffffffffffffffffffff1603611ef757806040517f7e273289000000000000000000000000000000000000000000000000000000008152600401611eee91906129f4565b60405180910390fd5b81816040517f177e802f000000000000000000000000000000000000000000000000000000008152600401611f2d9291906136a9565b60405180910390fd5b505050565b60007f000000000000000000000000000000000000000000000000000000000000000060085410611fa1576040517f08c379a0000000000000000000000000000000000000000000000000000000008152600401611f989061371e565b60405180910390fd5b7f0000000000000000000000000000000000000000000000000000000000000000600960008573ffffffffffffffffffffffffffffffffffffffff1673ffffffffffffffffffffffffffffffffffffffff1681526020019081526020016000205410612042576040517f08c379a00000000000000000000000000000000000000000000000000000000081526004016120399061378a565b60405180910390fd5b60086000815480929190612055906137aa565b91905055506000600854905061206b8482612335565b6120758184612353565b600960008573ffffffffffffffffffffffffffffffffffffffff1673ffffffffffffffffffffffffffffffffffffffff16815260200190815260200160002060008154809291906120c5906137aa565b9190505550600073ffffffffffffffffffffffffffffffffffffffff16600a60009054906101000a900473ffffffffffffffffffffffffffffffffffffffff1673ffffffffffffffffffffffffffffffffffffffff161461214d5761214c600a60009054906101000a900473ffffffffffffffffffffffffffffffffffffffff1682610655565b5b8373ffffffffffffffffffffffffffffffffffffffff16817f850e0fd6160a4a26f04306219130729d606202f82c2bfe863f6c7b5e04cb14a68560405161219491906127c9565b60405180910390a38091505092915050565b6060600060016121b5846123af565b01905060008167ffffffffffffffff8111156121d4576121d3612ab2565b5b6040519080825280601f01601f1916602001820160405280156122065781602001600182028036833780820191505090505b509050600082602001820190505b600115612269578080600190039150507f3031323334353637383961626364656600000000000000000000000000000000600a86061a8153600a858161225d5761225c6131cb565b5b04945060008503612214575b819350505050919050565b60008073ffffffffffffffffffffffffffffffffffffffff168373ffffffffffffffffffffffffffffffffffffffff161415801561232c57508273ffffffffffffffffffffffffffffffffffffffff168473ffffffffffffffffffffffffffffffffffffffff1614806122ed57506122ec84846111c9565b5b8061232b57508273ffffffffffffffffffffffffffffffffffffffff166123138361149a565b73ffffffffffffffffffffffffffffffffffffffff16145b5b90509392505050565b61234f828260405180602001604052806000815250612502565b5050565b806006600084815260200190815260200160002090816123739190613428565b507ff8e1a15aba9398e019f0b49df1a4fde98ee17ae345cb5f6b5e2c27f5033e8ce7826040516123a391906129f4565b60405180910390a15050565b600080600090507a184f03e93ff9f4daa797ed6e38ed64bf6a1f010000000000000000831061240d577a184f03e93ff9f4daa797ed6e38ed64bf6a1f0100000000000000008381612403576124026131cb565b5b0492506040810190505b6d04ee2d6d415b85acef8100000000831061244a576d04ee2d6d415b85acef810000000083816124405761243f6131cb565b5b0492506020810190505b662386f26fc10000831061247957662386f26fc10000838161246f5761246e6131cb565b5b0492506010810190505b6305f5e10083106124a2576305f5e1008381612498576124976131cb565b5b0492506008810190505b61271083106124c75761271083816124bd576124bc6131cb565b5b0492506004810190505b606483106124ea57606483816124e0576124df6131cb565b5b0492506002810190505b600a83106124f9576001810190505b80915050919050565b61250c8383612526565b6125216125176114d7565b60008585856119c7565b505050565b600073ffffffffffffffffffffffffffffffffffffffff168273ffffffffffffffffffffffffffffffffffffffff16036125985760006040517f64a0ae9200000000000000000000000000000000000000000000000000000000815260040161258f919061288f565b60405180910390fd5b60006125a6838360006114f1565b9050600073ffffffffffffffffffffffffffffffffffffffff168173ffffffffffffffffffffffffffffffffffffffff161461261a5760006040517f73c6ac6e000000000000000000000000000000000000000000000000000000008152600401612611919061288f565b60405180910390fd5b505050565b6040518060c00160405280600060ff168152602001600061ffff168152602001600061ffff168152602001600061ffff16815260200160608152602001600063ffffffff1681525090565b6000604051905090565b600080fd5b600080fd5b60007fffffffff0000000000000000000000000000000000000000000000000000000082169050919050565b6126b38161267e565b81146126be57600080fd5b50565b6000813590506126d0816126aa565b92915050565b6000602082840312156126ec576126eb612674565b5b60006126fa848285016126c1565b91505092915050565b60008115159050919050565b61271881612703565b82525050565b6000602082019050612733600083018461270f565b92915050565b600081519050919050565b600082825260208201905092915050565b60005b83811015612773578082015181840152602081019050612758565b60008484015250505050565b6000601f19601f8301169050919050565b600061279b82612739565b6127a58185612744565b93506127b5818560208601612755565b6127be8161277f565b840191505092915050565b600060208201905081810360008301526127e38184612790565b905092915050565b6000819050919050565b6127fe816127eb565b811461280957600080fd5b50565b60008135905061281b816127f5565b92915050565b60006020828403121561283757612836612674565b5b60006128458482850161280c565b91505092915050565b600073ffffffffffffffffffffffffffffffffffffffff82169050919050565b60006128798261284e565b9050919050565b6128898161286e565b82525050565b60006020820190506128a46000830184612880565b92915050565b6128b38161286e565b81146128be57600080fd5b50565b6000813590506128d0816128aa565b92915050565b600080604083850312156128ed576128ec612674565b5b60006128fb858286016128c1565b925050602061290c8582860161280c565b9150509250929050565b60008060006060848603121561292f5761292e612674565b5b600061293d868287016128c1565b935050602061294e868287016128c1565b925050604061295f8682870161280c565b9150509250925092565b600063ffffffff82169050919050565b61298281612969565b811461298d57600080fd5b50565b60008135905061299f81612979565b92915050565b600080604083850312156129bc576129bb612674565b5b60006129ca8582860161280c565b92505060206129db85828601612990565b9150509250929050565b6129ee816127eb565b82525050565b6000602082019050612a0960008301846129e5565b92915050565b600060208284031215612a2557612a24612674565b5b6000612a33848285016128c1565b91505092915050565b612a4581612703565b8114612a5057600080fd5b50565b600081359050612a6281612a3c565b92915050565b60008060408385031215612a7f57612a7e612674565b5b6000612a8d858286016128c1565b9250506020612a9e85828601612a53565b9150509250929050565b600080fd5b600080fd5b7f4e487b7100000000000000000000000000000000000000000000000000000000600052604160045260246000fd5b612aea8261277f565b810181811067ffffffffffffffff82111715612b0957612b08612ab2565b5b80604052505050565b6000612b1c61266a565b9050612b288282612ae1565b919050565b600067ffffffffffffffff821115612b4857612b47612ab2565b5b612b518261277f565b9050602081019050919050565b82818337600083830152505050565b6000612b80612b7b84612b2d565b612b12565b905082815260208101848484011115612b9c57612b9b612aad565b5b612ba7848285612b5e565b509392505050565b600082601f830112612bc457612bc3612aa8565b5b8135612bd4848260208601612b6d565b91505092915050565b60008060008060808587031215612bf757612bf6612674565b5b6000612c05878288016128c1565b9450506020612c16878288016128c1565b9350506040612c278782880161280c565b925050606085013567ffffffffffffffff811115612c4857612c47612679565b5b612c5487828801612baf565b91505092959194509250565b600060ff82169050919050565b612c7681612c60565b82525050565b600061ffff82169050919050565b612c9381612c7c565b82525050565b612ca281612969565b82525050565b600060c082019050612cbd6000830189612c6d565b612cca6020830188612c8a565b612cd76040830187612c8a565b612ce46060830186612c8a565b8181036080830152612cf68185612790565b9050612d0560a0830184612c99565b979650505050505050565b600067ffffffffffffffff821115612d2b57612d2a612ab2565b5b612d348261277f565b9050602081019050919050565b6000612d54612d4f84612d10565b612b12565b905082815260208101848484011115612d7057612d6f612aad565b5b612d7b848285612b5e565b509392505050565b600082601f830112612d9857612d97612aa8565b5b8135612da8848260208601612d41565b91505092915050565b612dba81612c7c565b8114612dc557600080fd5b50565b600081359050612dd781612db1565b92915050565b600080600080600060a08688031215612df957612df8612674565b5b600086013567ffffffffffffffff811115612e1757612e16612679565b5b612e2388828901612d83565b955050602086013567ffffffffffffffff811115612e4457612e43612679565b5b612e5088828901612d83565b9450506040612e6188828901612dc8565b9350506060612e7288828901612dc8565b9250506080612e8388828901612dc8565b9150509295509295909350565b612e9981612c60565b82525050565b612ea881612c7c565b82525050565b600082825260208201905092915050565b6000612eca82612739565b612ed48185612eae565b9350612ee4818560208601612755565b612eed8161277f565b840191505092915050565b612f0181612969565b82525050565b600060c083016000830151612f1f6000860182612e90565b506020830151612f326020860182612e9f565b506040830151612f456040860182612e9f565b506060830151612f586060860182612e9f565b5060808301518482036080860152612f708282612ebf565b91505060a0830151612f8560a0860182612ef8565b508091505092915050565b60006020820190508181036000830152612faa8184612f07565b905092915050565b60008060408385031215612fc957612fc8612674565b5b6000612fd7858286016128c1565b9250506020612fe8858286016128c1565b9150509250929050565b60006020828403121561300857613007612674565b5b600082013567ffffffffffffffff81111561302657613025612679565b5b61303284828501612d83565b91505092915050565b7f4e487b7100000000000000000000000000000000000000000000000000000000600052602260045260246000fd5b6000600282049050600182168061308257607f821691505b6020821081036130955761309461303b565b5b50919050565b60006060820190506130b06000830186612880565b6130bd60208301856129e5565b6130ca6040830184612880565b949350505050565b7f4f6e6c7920636861726163746572206f776e65722063616e206164642065787060008201527f657269656e636500000000000000000000000000000000000000000000000000602082015250565b600061312e602783612744565b9150613139826130d2565b604082019050919050565b6000602082019050818103600083015261315d81613121565b9050919050565b7f4e487b7100000000000000000000000000000000000000000000000000000000600052601160045260246000fd5b600061319e82612969565b91506131a983612969565b9250828201905063ffffffff8111156131c5576131c4613164565b5b92915050565b7f4e487b7100000000000000000000000000000000000000000000000000000000600052601260045260246000fd5b600061320582612969565b915061321083612969565b9250826132205761321f6131cb565b5b828204905092915050565b600061323682612c7c565b915061324183612c7c565b9250828201905061ffff81111561325b5761325a613164565b5b92915050565b60006020820190506132766000830184612c6d565b92915050565b60008190508160005260206000209050919050565b60006020601f8301049050919050565b600082821b905092915050565b6000600883026132de7fffffffffffffffffffffffffffffffffffffffffffffffffffffffffffffffff826132a1565b6132e886836132a1565b95508019841693508086168417925050509392505050565b6000819050919050565b600061332561332061331b846127eb565b613300565b6127eb565b9050919050565b6000819050919050565b61333f8361330a565b61335361334b8261332c565b8484546132ae565b825550505050565b600090565b61336861335b565b613373818484613336565b505050565b5b818110156133975761338c600082613360565b600181019050613379565b5050565b601f8211156133dc576133ad8161327c565b6133b684613291565b810160208510156133c5578190505b6133d96133d185613291565b830182613378565b50505b505050565b600082821c905092915050565b60006133ff600019846008026133e1565b1980831691505092915050565b600061341883836133ee565b9150826002028217905092915050565b61343182612739565b67ffffffffffffffff81111561344a57613449612ab2565b5b613454825461306a565b61345f82828561339b565b600060209050601f8311600181146134925760008415613480578287015190505b61348a858261340c565b8655506134f2565b601f1984166134a08661327c565b60005b828110156134c8578489015182556001820191506020850194506020810190506134a3565b868310156134e557848901516134e1601f8916826133ee565b8355505b6001600288020188555050505b505050505050565b600081905092915050565b600061351082612739565b61351a81856134fa565b935061352a818560208601612755565b80840191505092915050565b60006135428285613505565b915061354e8284613505565b91508190509392505050565b7f43686172616374657220646f6573206e6f742065786973740000000000000000600082015250565b6000613590601883612744565b915061359b8261355a565b602082019050919050565b600060208201905081810360008301526135bf81613583565b9050919050565b600081519050919050565b600082825260208201905092915050565b60006135ed826135c6565b6135f781856135d1565b9350613607818560208601612755565b6136108161277f565b840191505092915050565b60006080820190506136306000830187612880565b61363d6020830186612880565b61364a60408301856129e5565b818103606083015261365c81846135e2565b905095945050505050565b600081519050613676816126aa565b92915050565b60006020828403121561369257613691612674565b5b60006136a084828501613667565b91505092915050565b60006040820190506136be6000830185612880565b6136cb60208301846129e5565b9392505050565b7f4d617820737570706c7920726561636865640000000000000000000000000000600082015250565b6000613708601283612744565b9150613713826136d2565b602082019050919050565b60006020820190508181036000830152613737816136fb565b9050919050565b7f4d696e74206c696d697420706572206164647265737320726561636865640000600082015250565b6000613774601e83612744565b915061377f8261373e565b602082019050919050565b600060208201905081810360008301526137a381613767565b9050919050565b60006137b5826127eb565b91507fffffffffffffffffffffffffffffffffffffffffffffffffffffffffffffffff82036137e7576137e6613164565b5b60018201905091905056fea26469706673582212201649d3f339c6bd1335d701f0a6977f8bf717248851a08987e477c7c37228f56764736f6c634300081c0033",
  "linkReferences": {},
  "deployedLinkReferences": {}
}