{
  "_format": "hh-sol-artifact-1",
  "contractName": "MarketplaceNFT",
  "sourceName": "contracts/v2_contracts/MarketplaceNFT.sol",
  "abi": [
    {
      "inputs": [],
      "name": "ReentrancyGuardReentrantCall",
      "type": "error"
    },
    {
      "anonymous": false,
      "inputs": [
        {
          "indexed": true,
          "internalType": "uint256",
          "name": "saleId",
          "type": "uint256"
        },
        {
          "indexed": true,
          "internalType": "address",
          "name": "buyer",
          "type": "address"
        },
        {
          "indexed": true,
          "internalType": "address",
          "name": "vendor",
          "type": "address"
        },
        {
          "indexed": false,
          "internalType": "address",
          "name": "assetAddress",
          "type": "address"
        },
        {
          "indexed": false,
          "internalType": "uint256",
          "name": "itemId",
          "type": "uint256"
        },
        {
          "indexed": false,
          "internalType": "uint256",
          "name": "cost",
          "type": "uint256"
        }
      ],
      "name": "SaleCompleted",
      "type": "event"
    },
    {
      "anonymous": false,
      "inputs": [
        {
          "indexed": true,
          "internalType": "uint256",
          "name": "saleId",
          "type": "uint256"
        },
        {
          "indexed": true,
          "internalType": "address",
          "name": "vendor",
          "type": "address"
        },
        {
          "indexed": true,
          "internalType": "address",
          "name": "assetAddress",
          "type": "address"
        },
        {
          "indexed": false,
          "internalType": "uint256",
          "name": "itemId",
          "type": "uint256"
        },
        {
          "indexed": false,
          "internalType": "uint256",
          "name": "cost",
          "type": "uint256"
        }
      ],
      "name": "SaleCreated",
      "type": "event"
    },
    {
      "anonymous": false,
      "inputs": [
        {
          "indexed": true,
          "internalType": "uint256",
          "name": "saleId",
          "type": "uint256"
        },
        {
          "indexed": true,
          "internalType": "address",
          "name": "vendor",
          "type": "address"
        }
      ],
      "name": "SaleRemoved",
      "type": "event"
    },
    {
      "inputs": [
        {
          "internalType": "address",
          "name": "assetAddress",
          "type": "address"
        },
        {
          "internalType": "uint256",
          "name": "itemId",
          "type": "uint256"
        },
        {
          "internalType": "uint256",
          "name": "cost",
          "type": "uint256"
        }
      ],
      "name": "createSale",
      "outputs": [],
      "stateMutability": "nonpayable",
      "type": "function"
    },
    {
      "inputs": [],
      "name": "currentSaleId",
      "outputs": [
        {
          "internalType": "uint256",
          "name": "",
          "type": "uint256"
        }
      ],
      "stateMutability": "view",
      "type": "function"
    },
    {
      "inputs": [
        {
          "internalType": "uint256",
          "name": "saleId",
          "type": "uint256"
        }
      ],
      "name": "purchaseNFT",
      "outputs": [],
      "stateMutability": "payable",
      "type": "function"
    },
    {
      "inputs": [
        {
          "internalType": "uint256",
          "name": "saleId",
          "type": "uint256"
        }
      ],
      "name": "removeSale",
      "outputs": [],
      "stateMutability": "nonpayable",
      "type": "function"
    },
    {
      "inputs": [
        {
          "internalType": "uint256",
          "name": "",
          "type": "uint256"
        }
      ],
      "name": "sales",
      "outputs": [
        {
          "internalType": "address",
          "name": "vendor",
          "type": "address"
        },
        {
          "internalType": "address",
          "name": "assetAddress",
          "type": "address"
        },
        {
          "internalType": "uint256",
          "name": "itemId",
          "type": "uint256"
        },
        {
          "internalType": "uint256",
          "name": "cost",
          "type": "uint256"
        },
        {
          "internalType": "bool",
          "name": "available",
          "type": "bool"
        }
      ],
      "stateMutability": "view",
      "type": "function"
    }
  ],
  "bytecode": "0x608060405260018055348015601357600080fd5b5060016000819055506112928061002b6000396000f3fe60806040526004361061004a5760003560e01c8063150bde031461004f5780632e8498941461006b57806344e797e9146100965780639f161af2146100bf578063b5f522f7146100e8575b600080fd5b61006960048036038101906100649190610bf0565b610129565b005b34801561007757600080fd5b5061008061058f565b60405161008d9190610c2c565b60405180910390f35b3480156100a257600080fd5b506100bd60048036038101906100b89190610bf0565b610595565b005b3480156100cb57600080fd5b506100e660048036038101906100e19190610ca5565b610704565b005b3480156100f457600080fd5b5061010f600480360381019061010a9190610bf0565b610ae2565b604051610120959493929190610d22565b60405180910390f35b610131610b65565b60006002600083815260200190815260200160002090508060040160009054906101000a900460ff16610199576040517f08c379a000000000000000000000000000000000000000000000000000000000815260040161019090610dd2565b60405180910390fd5b806003015434146101df576040517f08c379a00000000000000000000000000000000000000000000000000000000081526004016101d690610e3e565b60405180910390fd5b3373ffffffffffffffffffffffffffffffffffffffff168160000160009054906101000a900473ffffffffffffffffffffffffffffffffffffffff1673ffffffffffffffffffffffffffffffffffffffff1603610271576040517f08c379a000000000000000000000000000000000000000000000000000000000815260040161026890610eaa565b60405180910390fd5b60008160010160009054906101000a900473ffffffffffffffffffffffffffffffffffffffff1690508160000160009054906101000a900473ffffffffffffffffffffffffffffffffffffffff1673ffffffffffffffffffffffffffffffffffffffff168173ffffffffffffffffffffffffffffffffffffffff16636352211e84600201546040518263ffffffff1660e01b81526004016103129190610c2c565b602060405180830381865afa15801561032f573d6000803e3d6000fd5b505050506040513d601f19601f820116820180604052508101906103539190610edf565b73ffffffffffffffffffffffffffffffffffffffff16146103a9576040517f08c379a00000000000000000000000000000000000000000000000000000000081526004016103a090610f58565b60405180910390fd5b60008260040160006101000a81548160ff0219169083151502179055508073ffffffffffffffffffffffffffffffffffffffff166342842e0e8360000160009054906101000a900473ffffffffffffffffffffffffffffffffffffffff163385600201546040518463ffffffff1660e01b815260040161042b93929190610f78565b600060405180830381600087803b15801561044557600080fd5b505af1158015610459573d6000803e3d6000fd5b505050508160000160009054906101000a900473ffffffffffffffffffffffffffffffffffffffff1673ffffffffffffffffffffffffffffffffffffffff166108fc349081150290604051600060405180830381858888f193505050501580156104c7573d6000803e3d6000fd5b508160000160009054906101000a900473ffffffffffffffffffffffffffffffffffffffff1673ffffffffffffffffffffffffffffffffffffffff163373ffffffffffffffffffffffffffffffffffffffff16847f3cec713b51e531f4a959a5e244deee9da49c7fa5c1e27ffc35e29a5ee0d05e498560010160009054906101000a900473ffffffffffffffffffffffffffffffffffffffff168660020154876003015460405161057a93929190610faf565b60405180910390a4505061058c610bab565b50565b60015481565b61059d610b65565b60006002600083815260200190815260200160002090508060040160009054906101000a900460ff16610605576040517f08c379a00000000000000000000000000000000000000000000000000000000081526004016105fc90610dd2565b60405180910390fd5b3373ffffffffffffffffffffffffffffffffffffffff168160000160009054906101000a900473ffffffffffffffffffffffffffffffffffffffff1673ffffffffffffffffffffffffffffffffffffffff1614610697576040517f08c379a000000000000000000000000000000000000000000000000000000000815260040161068e90611032565b60405180910390fd5b60008160040160006101000a81548160ff0219169083151502179055503373ffffffffffffffffffffffffffffffffffffffff16827f318b830ffaa9fd9008ca521214f8ae3f8416b5fb432abf113724f9d2b054c8d860405160405180910390a350610701610bab565b50565b61070c610b65565b6000811161074f576040517f08c379a00000000000000000000000000000000000000000000000000000000081526004016107469061109e565b60405180910390fd5b60008390503373ffffffffffffffffffffffffffffffffffffffff168173ffffffffffffffffffffffffffffffffffffffff16636352211e856040518263ffffffff1660e01b81526004016107a49190610c2c565b602060405180830381865afa1580156107c1573d6000803e3d6000fd5b505050506040513d601f19601f820116820180604052508101906107e59190610edf565b73ffffffffffffffffffffffffffffffffffffffff161461083b576040517f08c379a000000000000000000000000000000000000000000000000000000000815260040161083290611130565b60405180910390fd5b3073ffffffffffffffffffffffffffffffffffffffff168173ffffffffffffffffffffffffffffffffffffffff1663081812fc856040518263ffffffff1660e01b815260040161088b9190610c2c565b602060405180830381865afa1580156108a8573d6000803e3d6000fd5b505050506040513d601f19601f820116820180604052508101906108cc9190610edf565b73ffffffffffffffffffffffffffffffffffffffff1614610922576040517f08c379a00000000000000000000000000000000000000000000000000000000081526004016109199061119c565b60405180910390fd5b6040518060a001604052803373ffffffffffffffffffffffffffffffffffffffff1681526020018573ffffffffffffffffffffffffffffffffffffffff1681526020018481526020018381526020016001151581525060026000600154815260200190815260200160002060008201518160000160006101000a81548173ffffffffffffffffffffffffffffffffffffffff021916908373ffffffffffffffffffffffffffffffffffffffff16021790555060208201518160010160006101000a81548173ffffffffffffffffffffffffffffffffffffffff021916908373ffffffffffffffffffffffffffffffffffffffff160217905550604082015181600201556060820151816003015560808201518160040160006101000a81548160ff0219169083151502179055509050508373ffffffffffffffffffffffffffffffffffffffff163373ffffffffffffffffffffffffffffffffffffffff166001547f57412d7f8ab9f09c8f517e3e9f6e4819b7d74a97e65ce95ad4605ef5172fcbad8686604051610ab49291906111bc565b60405180910390a460016000815480929190610acf90611214565b919050555050610add610bab565b505050565b60026020528060005260406000206000915090508060000160009054906101000a900473ffffffffffffffffffffffffffffffffffffffff16908060010160009054906101000a900473ffffffffffffffffffffffffffffffffffffffff16908060020154908060030154908060040160009054906101000a900460ff16905085565b600260005403610ba1576040517f3ee5aeb500000000000000000000000000000000000000000000000000000000815260040160405180910390fd5b6002600081905550565b6001600081905550565b600080fd5b6000819050919050565b610bcd81610bba565b8114610bd857600080fd5b50565b600081359050610bea81610bc4565b92915050565b600060208284031215610c0657610c05610bb5565b5b6000610c1484828501610bdb565b91505092915050565b610c2681610bba565b82525050565b6000602082019050610c416000830184610c1d565b92915050565b600073ffffffffffffffffffffffffffffffffffffffff82169050919050565b6000610c7282610c47565b9050919050565b610c8281610c67565b8114610c8d57600080fd5b50565b600081359050610c9f81610c79565b92915050565b600080600060608486031215610cbe57610cbd610bb5565b5b6000610ccc86828701610c90565b9350506020610cdd86828701610bdb565b9250506040610cee86828701610bdb565b9150509250925092565b610d0181610c67565b82525050565b60008115159050919050565b610d1c81610d07565b82525050565b600060a082019050610d376000830188610cf8565b610d446020830187610cf8565b610d516040830186610c1d565b610d5e6060830185610c1d565b610d6b6080830184610d13565b9695505050505050565b600082825260208201905092915050565b7f53616c65206e6f7420617661696c61626c650000000000000000000000000000600082015250565b6000610dbc601283610d75565b9150610dc782610d86565b602082019050919050565b60006020820190508181036000830152610deb81610daf565b9050919050565b7f496e636f72726563742045544820616d6f756e74000000000000000000000000600082015250565b6000610e28601483610d75565b9150610e3382610df2565b602082019050919050565b60006020820190508181036000830152610e5781610e1b565b9050919050565b7f596f752063616e27742062757920796f7572206f776e204e4654000000000000600082015250565b6000610e94601a83610d75565b9150610e9f82610e5e565b602082019050919050565b60006020820190508181036000830152610ec381610e87565b9050919050565b600081519050610ed981610c79565b92915050565b600060208284031215610ef557610ef4610bb5565b5b6000610f0384828501610eca565b91505092915050565b7f56656e646f72206e6f206c6f6e676572206f776e732074686973206173736574600082015250565b6000610f42602083610d75565b9150610f4d82610f0c565b602082019050919050565b60006020820190508181036000830152610f7181610f35565b9050919050565b6000606082019050610f8d6000830186610cf8565b610f9a6020830185610cf8565b610fa76040830184610c1d565b949350505050565b6000606082019050610fc46000830186610cf8565b610fd16020830185610c1d565b610fde6040830184610c1d565b949350505050565b7f596f7520617265206e6f74207468652076656e646f7200000000000000000000600082015250565b600061101c601683610d75565b915061102782610fe6565b602082019050919050565b6000602082019050818103600083015261104b8161100f565b9050919050565b7f436f7374206d7573742062652067726561746572207468616e20300000000000600082015250565b6000611088601b83610d75565b915061109382611052565b602082019050919050565b600060208201905081810360008301526110b78161107b565b9050919050565b7f596f7520617265206e6f7420746865206f776e6572206f66207468697320617360008201527f7365740000000000000000000000000000000000000000000000000000000000602082015250565b600061111a602383610d75565b9150611125826110be565b604082019050919050565b600060208201905081810360008301526111498161110d565b9050919050565b7f4d61726b6574706c616365206e6f7420617574686f72697a6564000000000000600082015250565b6000611186601a83610d75565b915061119182611150565b602082019050919050565b600060208201905081810360008301526111b581611179565b9050919050565b60006040820190506111d16000830185610c1d565b6111de6020830184610c1d565b9392505050565b7f4e487b7100000000000000000000000000000000000000000000000000000000600052601160045260246000fd5b600061121f82610bba565b91507fffffffffffffffffffffffffffffffffffffffffffffffffffffffffffffffff8203611251576112506111e5565b5b60018201905091905056fea26469706673582212208f4c314f0f4ddd24b04316989aa1c627345cdeb6137248ffab150cee0e7b999b64736f6c634300081c0033",
  "linkReferences": {},
  "deployedLinkReferences": {}
}