{
  "_format": "hh-sol-artifact-1",
  "contractName": "MetaMintNFT",
  "sourceName": "contracts/v2_contracts/MetaMintNFT.sol",
  "abi": [
    {
      "inputs": [
        {
          "internalType": "uint256",
          "name": "maxSupply",
          "type": "uint256"
        },
        {
          "internalType": "uint256",
          "name": "maxMintPerAddress",
          "type": "uint256"
        },
        {
          "internalType": "address",
          "name": "_marketplace",
          "type": "address"
        }
      ],
      "stateMutability": "nonpayable",
      "type": "constructor"
    },
    {
      "inputs": [
        {
          "internalType": "address",
          "name": "sender",
          "type": "address"
        },
        {
          "internalType": "uint256",
          "name": "tokenId",
          "type": "uint256"
        },
        {
          "internalType": "address",
          "name": "owner",
          "type": "address"
        }
      ],
      "name": "ERC721IncorrectOwner",
      "type": "error"
    },
    {
      "inputs": [
        {
          "internalType": "address",
          "name": "operator",
          "type": "address"
        },
        {
          "internalType": "uint256",
          "name": "tokenId",
          "type": "uint256"
        }
      ],
      "name": "ERC721InsufficientApproval",
      "type": "error"
    },
    {
      "inputs": [
        {
          "internalType": "address",
          "name": "approver",
          "type": "address"
        }
      ],
      "name": "ERC721InvalidApprover",
      "type": "error"
    },
    {
      "inputs": [
        {
          "internalType": "address",
          "name": "operator",
          "type": "address"
        }
      ],
      "name": "ERC721InvalidOperator",
      "type": "error"
    },
    {
      "inputs": [
        {
          "internalType": "address",
          "name": "owner",
          "type": "address"
        }
      ],
      "name": "ERC721InvalidOwner",
      "type": "error"
    },
    {
      "inputs": [
        {
          "internalType": "address",
          "name": "receiver",
          "type": "address"
        }
      ],
      "name": "ERC721InvalidReceiver",
      "type": "error"
    },
    {
      "inputs": [
        {
          "internalType": "address",
          "name": "sender",
          "type": "address"
        }
      ],
      "name": "ERC721InvalidSender",
      "type": "error"
    },
    {
      "inputs": [
        {
          "internalType": "uint256",
          "name": "tokenId",
          "type": "uint256"
        }
      ],
      "name": "ERC721NonexistentToken",
      "type": "error"
    },
    {
      "inputs": [
        {
          "internalType": "address",
          "name": "owner",
          "type": "address"
        }
      ],
      "name": "OwnableInvalidOwner",
      "type": "error"
    },
    {
      "inputs": [
        {
          "internalType": "address",
          "name": "account",
          "type": "address"
        }
      ],
      "name": "OwnableUnauthorizedAccount",
      "type": "error"
    },
    {
      "anonymous": false,
      "inputs": [
        {
          "indexed": true,
          "internalType": "address",
          "name": "owner",
          "type": "address"
        },
        {
          "indexed": true,
          "internalType": "address",
          "name": "approved",
          "type": "address"
        },
        {
          "indexed": true,
          "internalType": "uint256",
          "name": "tokenId",
          "type": "uint256"
        }
      ],
      "name": "Approval",
      "type": "event"
    },
    {
      "anonymous": false,
      "inputs": [
        {
          "indexed": true,
          "internalType": "address",
          "name": "owner",
          "type": "address"
        },
        {
          "indexed": true,
          "internalType": "address",
          "name": "operator",
          "type": "address"
        },
        {
          "indexed": false,
          "internalType": "bool",
          "name": "approved",
          "type": "bool"
        }
      ],
      "name": "ApprovalForAll",
      "type": "event"
    },
    {
      "anonymous": false,
      "inputs": [
        {
          "indexed": false,
          "internalType": "uint256",
          "name": "_fromTokenId",
          "type": "uint256"
        },
        {
          "indexed": false,
          "internalType": "uint256",
          "name": "_toTokenId",
          "type": "uint256"
        }
      ],
      "name": "BatchMetadataUpdate",
      "type": "event"
    },
    {
      "anonymous": false,
      "inputs": [
        {
          "indexed": false,
          "internalType": "uint256",
          "name": "_tokenId",
          "type": "uint256"
        }
      ],
      "name": "MetadataUpdate",
      "type": "event"
    },
    {
      "anonymous": false,
      "inputs": [
        {
          "indexed": true,
          "internalType": "uint256",
          "name": "tokenId",
          "type": "uint256"
        },
        {
          "indexed": true,
          "internalType": "address",
          "name": "owner",
          "type": "address"
        },
        {
          "indexed": false,
          "internalType": "string",
          "name": "tokenURI",
          "type": "string"
        }
      ],
      "name": "MintedNewNFT",
      "type": "event"
    },
    {
      "anonymous": false,
      "inputs": [
        {
          "indexed": true,
          "internalType": "address",
          "name": "previousOwner",
          "type": "address"
        },
        {
          "indexed": true,
          "internalType": "address",
          "name": "newOwner",
          "type": "address"
        }
      ],
      "name": "OwnershipTransferred",
      "type": "event"
    },
    {
      "anonymous": false,
      "inputs": [
        {
          "indexed": true,
          "internalType": "address",
          "name": "from",
          "type": "address"
        },
        {
          "indexed": true,
          "internalType": "address",
          "name": "to",
          "type": "address"
        },
        {
          "indexed": true,
          "internalType": "uint256",
          "name": "tokenId",
          "type": "uint256"
        }
      ],
      "name": "Transfer",
      "type": "event"
    },
    {
      "inputs": [],
      "name": "MAX_MINT_PER_ADDRESS",
      "outputs": [
        {
          "internalType": "uint256",
          "name": "",
          "type": "uint256"
        }
      ],
      "stateMutability": "view",
      "type": "function"
    },
    {
      "inputs": [],
      "name": "MAX_SUPPLY",
      "outputs": [
        {
          "internalType": "uint256",
          "name": "",
          "type": "uint256"
        }
      ],
      "stateMutability": "view",
      "type": "function"
    },
    {
      "inputs": [
        {
          "internalType": "address",
          "name": "to",
          "type": "address"
        },
        {
          "internalType": "uint256",
          "name": "tokenId",
          "type": "uint256"
        }
      ],
      "name": "approve",
      "outputs": [],
      "stateMutability": "nonpayable",
      "type": "function"
    },
    {
      "inputs": [
        {
          "internalType": "address",
          "name": "owner",
          "type": "address"
        }
      ],
      "name": "balanceOf",
      "outputs": [
        {
          "internalType": "uint256",
          "name": "",
          "type": "uint256"
        }
      ],
      "stateMutability": "view",
      "type": "function"
    },
    {
      "inputs": [
        {
          "internalType": "uint256",
          "name": "tokenId",
          "type": "uint256"
        }
      ],
      "name": "getApproved",
      "outputs": [
        {
          "internalType": "address",
          "name": "",
          "type": "address"
        }
      ],
      "stateMutability": "view",
      "type": "function"
    },
    {
      "inputs": [
        {
          "internalType": "address",
          "name": "owner",
          "type": "address"
        },
        {
          "internalType": "address",
          "name": "operator",
          "type": "address"
        }
      ],
      "name": "isApprovedForAll",
      "outputs": [
        {
          "internalType": "bool",
          "name": "",
          "type": "bool"
        }
      ],
      "stateMutability": "view",
      "type": "function"
    },
    {
      "inputs": [],
      "name": "marketplace",
      "outputs": [
        {
          "internalType": "address",
          "name": "",
          "type": "address"
        }
      ],
      "stateMutability": "view",
      "type": "function"
    },
    {
      "inputs": [
        {
          "internalType": "string",
          "name": "tokenURI",
          "type": "string"
        }
      ],
      "name": "mintNFT",
      "outputs": [
        {
          "internalType": "uint256",
          "name": "",
          "type": "uint256"
        }
      ],
      "stateMutability": "nonpayable",
      "type": "function"
    },
    {
      "inputs": [
        {
          "internalType": "address",
          "name": "owner",
          "type": "address"
        }
      ],
      "name": "mintedByAddress",
      "outputs": [
        {
          "internalType": "uint256",
          "name": "",
          "type": "uint256"
        }
      ],
      "stateMutability": "view",
      "type": "function"
    },
    {
      "inputs": [],
      "name": "name",
      "outputs": [
        {
          "internalType": "string",
          "name": "",
          "type": "string"
        }
      ],
      "stateMutability": "view",
      "type": "function"
    },
    {
      "inputs": [],
      "name": "owner",
      "outputs": [
        {
          "internalType": "address",
          "name": "",
          "type": "address"
        }
      ],
      "stateMutability": "view",
      "type": "function"
    },
    {
      "inputs": [
        {
          "internalType": "uint256",
          "name": "tokenId",
          "type": "uint256"
        }
      ],
      "name": "ownerOf",
      "outputs": [
        {
          "internalType": "address",
          "name": "",
          "type": "address"
        }
      ],
      "stateMutability": "view",
      "type": "function"
    },
    {
      "inputs": [],
      "name": "renounceOwnership",
      "outputs": [],
      "stateMutability": "nonpayable",
      "type": "function"
    },
    {
      "inputs": [
        {
          "internalType": "address",
          "name": "from",
          "type": "address"
        },
        {
          "internalType": "address",
          "name": "to",
          "type": "address"
        },
        {
          "internalType": "uint256",
          "name": "tokenId",
          "type": "uint256"
        }
      ],
      "name": "safeTransferFrom",
      "outputs": [],
      "stateMutability": "nonpayable",
      "type": "function"
    },
    {
      "inputs": [
        {
          "internalType": "address",
          "name": "from",
          "type": "address"
        },
        {
          "internalType": "address",
          "name": "to",
          "type": "address"
        },
        {
          "internalType": "uint256",
          "name": "tokenId",
          "type": "uint256"
        },
        {
          "internalType": "bytes",
          "name": "data",
          "type": "bytes"
        }
      ],
      "name": "safeTransferFrom",
      "outputs": [],
      "stateMutability": "nonpayable",
      "type": "function"
    },
    {
      "inputs": [
        {
          "internalType": "address",
          "name": "operator",
          "type": "address"
        },
        {
          "internalType": "bool",
          "name": "approved",
          "type": "bool"
        }
      ],
      "name": "setApprovalForAll",
      "outputs": [],
      "stateMutability": "nonpayable",
      "type": "function"
    },
    {
      "inputs": [
        {
          "internalType": "address",
          "name": "_marketplace",
          "type": "address"
        }
      ],
      "name": "setMarketplace",
      "outputs": [],
      "stateMutability": "nonpayable",
      "type": "function"
    },
    {
      "inputs": [
        {
          "internalType": "bytes4",
          "name": "interfaceId",
          "type": "bytes4"
        }
      ],
      "name": "supportsInterface",
      "outputs": [
        {
          "internalType": "bool",
          "name": "",
          "type": "bool"
        }
      ],
      "stateMutability": "view",
      "type": "function"
    },
    {
      "inputs": [],
      "name": "symbol",
      "outputs": [
        {
          "internalType": "string",
          "name": "",
          "type": "string"
        }
      ],
      "stateMutability": "view",
      "type": "function"
    },
    {
      "inputs": [
        {
          "internalType": "uint256",
          "name": "tokenId",
          "type": "uint256"
        }
      ],
      "name": "tokenURI",
      "outputs": [
        {
          "internalType": "string",
          "name": "",
          "type": "string"
        }
      ],
      "stateMutability": "view",
      "type": "function"
    },
    {
      "inputs": [
        {
          "internalType": "address",
          "name": "from",
          "type": "address"
        },
        {
          "internalType": "address",
          "name": "to",
          "type": "address"
        },
        {
          "internalType": "uint256",
          "name": "tokenId",
          "type": "uint256"
        }
      ],
      "name": "transferFrom",
      "outputs": [],
      "stateMutability": "nonpayable",
      "type": "function"
    },
    {
      "inputs": [
        {
          "internalType": "address",
          "name": "newOwner",
          "type": "address"
        }
      ],
      "name": "transferOwnership",
      "outputs": [],
      "stateMutability": "nonpayable",
      "type": "function"
    }
  ],
  "bytecode": "0x60c060405234801561001057600080fd5b506040516134ce3803806134ce833981810160405281019061003291906103ce565b6040518060400160405280600b81526020017f4d6574614d696e744e46540000000000000000000000000000000000000000008152506040518060400160405280600581526020017f4d4d4e465400000000000000000000000000000000000000000000000000000081525084848433858581600090816100b39190610667565b5080600190816100c39190610667565b505050600073ffffffffffffffffffffffffffffffffffffffff168173ffffffffffffffffffffffffffffffffffffffff16036101385760006040517f1e4fbdf700000000000000000000000000000000000000000000000000000000815260040161012f9190610748565b60405180910390fd5b6101478161026f60201b60201c565b506000831161018b576040517f08c379a0000000000000000000000000000000000000000000000000000000008152600401610182906107e6565b60405180910390fd5b600082116101ce576040517f08c379a00000000000000000000000000000000000000000000000000000000081526004016101c590610878565b60405180910390fd5b82821115610211576040517f08c379a00000000000000000000000000000000000000000000000000000000081526004016102089061090a565b60405180910390fd5b82608081815250508160a0818152505080600a60006101000a81548173ffffffffffffffffffffffffffffffffffffffff021916908373ffffffffffffffffffffffffffffffffffffffff160217905550505050505050505061092a565b6000600760009054906101000a900473ffffffffffffffffffffffffffffffffffffffff16905081600760006101000a81548173ffffffffffffffffffffffffffffffffffffffff021916908373ffffffffffffffffffffffffffffffffffffffff1602179055508173ffffffffffffffffffffffffffffffffffffffff168173ffffffffffffffffffffffffffffffffffffffff167f8be0079c531659141344cd1fd0a4f28419497f9722a3daafe3b4186f6b6457e060405160405180910390a35050565b600080fd5b6000819050919050565b61034d8161033a565b811461035857600080fd5b50565b60008151905061036a81610344565b92915050565b600073ffffffffffffffffffffffffffffffffffffffff82169050919050565b600061039b82610370565b9050919050565b6103ab81610390565b81146103b657600080fd5b50565b6000815190506103c8816103a2565b92915050565b6000806000606084860312156103e7576103e6610335565b5b60006103f58682870161035b565b93505060206104068682870161035b565b9250506040610417868287016103b9565b9150509250925092565b600081519050919050565b7f4e487b7100000000000000000000000000000000000000000000000000000000600052604160045260246000fd5b7f4e487b7100000000000000000000000000000000000000000000000000000000600052602260045260246000fd5b600060028204905060018216806104a257607f821691505b6020821081036104b5576104b461045b565b5b50919050565b60008190508160005260206000209050919050565b60006020601f8301049050919050565b600082821b905092915050565b60006008830261051d7fffffffffffffffffffffffffffffffffffffffffffffffffffffffffffffffff826104e0565b61052786836104e0565b95508019841693508086168417925050509392505050565b6000819050919050565b600061056461055f61055a8461033a565b61053f565b61033a565b9050919050565b6000819050919050565b61057e83610549565b61059261058a8261056b565b8484546104ed565b825550505050565b600090565b6105a761059a565b6105b2818484610575565b505050565b5b818110156105d6576105cb60008261059f565b6001810190506105b8565b5050565b601f82111561061b576105ec816104bb565b6105f5846104d0565b81016020851015610604578190505b610618610610856104d0565b8301826105b7565b50505b505050565b600082821c905092915050565b600061063e60001984600802610620565b1980831691505092915050565b6000610657838361062d565b9150826002028217905092915050565b61067082610421565b67ffffffffffffffff8111156106895761068861042c565b5b610693825461048a565b61069e8282856105da565b600060209050601f8311600181146106d157600084156106bf578287015190505b6106c9858261064b565b865550610731565b601f1984166106df866104bb565b60005b82811015610707578489015182556001820191506020850194506020810190506106e2565b868310156107245784890151610720601f89168261062d565b8355505b6001600288020188555050505b505050505050565b61074281610390565b82525050565b600060208201905061075d6000830184610739565b92915050565b600082825260208201905092915050565b7f4d617820737570706c79206d7573742062652067726561746572207468616e2060008201527f3000000000000000000000000000000000000000000000000000000000000000602082015250565b60006107d0602183610763565b91506107db82610774565b604082019050919050565b600060208201905081810360008301526107ff816107c3565b9050919050565b7f4d6178206d696e74207065722061646472657373206d7573742062652067726560008201527f61746572207468616e2030000000000000000000000000000000000000000000602082015250565b6000610862602b83610763565b915061086d82610806565b604082019050919050565b6000602082019050818103600083015261089181610855565b9050919050565b7f4d6178206d696e74207065722061646472657373206d757374206265206c6f7760008201527f6572207468616e206d617820737570706c790000000000000000000000000000602082015250565b60006108f4603283610763565b91506108ff82610898565b604082019050919050565b60006020820190508181036000830152610923816108e7565b9050919050565b60805160a051612b7161095d6000396000818161069601526118ea01526000818161067201526118860152612b716000f3fe608060405234801561001057600080fd5b50600436106101425760003560e01c8063715018a6116100b8578063abc8c7af1161007c578063abc8c7af14610363578063b88d4fde14610381578063c87b56dd1461039d578063e985e9c5146103cd578063f2fde38b146103fd578063fb37e8831461041957610142565b8063715018a6146102e557806373ad6c2d146102ef5780638da5cb5b1461030b57806395d89b4114610329578063a22cb4651461034757610142565b806332cb6b0c1161010a57806332cb6b0c146101fd5780633acd6cb21461021b5780633ca63f2c1461023957806342842e0e146102695780636352211e1461028557806370a08231146102b557610142565b806301ffc9a71461014757806306fdde0314610177578063081812fc14610195578063095ea7b3146101c557806323b872dd146101e1575b600080fd5b610161600480360381019061015c9190611f04565b610449565b60405161016e9190611f4c565b60405180910390f35b61017f6104aa565b60405161018c9190611ff7565b60405180910390f35b6101af60048036038101906101aa919061204f565b61053c565b6040516101bc91906120bd565b60405180910390f35b6101df60048036038101906101da9190612104565b610558565b005b6101fb60048036038101906101f69190612144565b61056e565b005b610205610670565b60405161021291906121a6565b60405180910390f35b610223610694565b60405161023091906121a6565b60405180910390f35b610253600480360381019061024e91906121c1565b6106b8565b60405161026091906121a6565b60405180910390f35b610283600480360381019061027e9190612144565b610701565b005b61029f600480360381019061029a919061204f565b610721565b6040516102ac91906120bd565b60405180910390f35b6102cf60048036038101906102ca91906121c1565b610733565b6040516102dc91906121a6565b60405180910390f35b6102ed6107ed565b005b610309600480360381019061030491906121c1565b610801565b005b61031361084d565b60405161032091906120bd565b60405180910390f35b610331610877565b60405161033e9190611ff7565b60405180910390f35b610361600480360381019061035c919061221a565b610909565b005b61036b61091f565b60405161037891906120bd565b60405180910390f35b61039b6004803603810190610396919061238f565b610945565b005b6103b760048036038101906103b2919061204f565b61096a565b6040516103c49190611ff7565b60405180910390f35b6103e760048036038101906103e29190612412565b610a7d565b6040516103f49190611f4c565b60405180910390f35b610417600480360381019061041291906121c1565b610b11565b005b610433600480360381019061042e91906124f3565b610b97565b60405161044091906121a6565b60405180910390f35b6000634906490660e01b7bffffffffffffffffffffffffffffffffffffffffffffffffffffffff1916827bffffffffffffffffffffffffffffffffffffffffffffffffffffffff191614806104a357506104a282610ba9565b5b9050919050565b6060600080546104b99061256b565b80601f01602080910402602001604051908101604052809291908181526020018280546104e59061256b565b80156105325780601f1061050757610100808354040283529160200191610532565b820191906000526020600020905b81548152906001019060200180831161051557829003601f168201915b5050505050905090565b600061054782610c8b565b5061055182610d13565b9050919050565b61056a8282610565610d50565b610d58565b5050565b600073ffffffffffffffffffffffffffffffffffffffff168273ffffffffffffffffffffffffffffffffffffffff16036105e05760006040517f64a0ae920000000000000000000000000000000000000000000000000000000081526004016105d791906120bd565b60405180910390fd5b60006105f483836105ef610d50565b610d6a565b90508373ffffffffffffffffffffffffffffffffffffffff168173ffffffffffffffffffffffffffffffffffffffff161461066a578382826040517f64283d7b0000000000000000000000000000000000000000000000000000000081526004016106619392919061259c565b60405180910390fd5b50505050565b7f000000000000000000000000000000000000000000000000000000000000000081565b7f000000000000000000000000000000000000000000000000000000000000000081565b6000600960008373ffffffffffffffffffffffffffffffffffffffff1673ffffffffffffffffffffffffffffffffffffffff168152602001908152602001600020549050919050565b61071c83838360405180602001604052806000815250610945565b505050565b600061072c82610c8b565b9050919050565b60008073ffffffffffffffffffffffffffffffffffffffff168273ffffffffffffffffffffffffffffffffffffffff16036107a65760006040517f89c62b6400000000000000000000000000000000000000000000000000000000815260040161079d91906120bd565b60405180910390fd5b600360008373ffffffffffffffffffffffffffffffffffffffff1673ffffffffffffffffffffffffffffffffffffffff168152602001908152602001600020549050919050565b6107f5610f84565b6107ff600061100b565b565b610809610f84565b80600a60006101000a81548173ffffffffffffffffffffffffffffffffffffffff021916908373ffffffffffffffffffffffffffffffffffffffff16021790555050565b6000600760009054906101000a900473ffffffffffffffffffffffffffffffffffffffff16905090565b6060600180546108869061256b565b80601f01602080910402602001604051908101604052809291908181526020018280546108b29061256b565b80156108ff5780601f106108d4576101008083540402835291602001916108ff565b820191906000526020600020905b8154815290600101906020018083116108e257829003601f168201915b5050505050905090565b61091b610914610d50565b83836110d1565b5050565b600a60009054906101000a900473ffffffffffffffffffffffffffffffffffffffff1681565b61095084848461056e565b61096461095b610d50565b85858585611240565b50505050565b606061097582610c8b565b5060006006600084815260200190815260200160002080546109969061256b565b80601f01602080910402602001604051908101604052809291908181526020018280546109c29061256b565b8015610a0f5780601f106109e457610100808354040283529160200191610a0f565b820191906000526020600020905b8154815290600101906020018083116109f257829003601f168201915b505050505090506000610a206113f1565b90506000815103610a35578192505050610a78565b600082511115610a6a578082604051602001610a5292919061260f565b60405160208183030381529060405292505050610a78565b610a7384611408565b925050505b919050565b6000600560008473ffffffffffffffffffffffffffffffffffffffff1673ffffffffffffffffffffffffffffffffffffffff16815260200190815260200160002060008373ffffffffffffffffffffffffffffffffffffffff1673ffffffffffffffffffffffffffffffffffffffff16815260200190815260200160002060009054906101000a900460ff16905092915050565b610b19610f84565b600073ffffffffffffffffffffffffffffffffffffffff168173ffffffffffffffffffffffffffffffffffffffff1603610b8b5760006040517f1e4fbdf7000000000000000000000000000000000000000000000000000000008152600401610b8291906120bd565b60405180910390fd5b610b948161100b565b50565b6000610ba282611471565b9050919050565b60007f80ac58cd000000000000000000000000000000000000000000000000000000007bffffffffffffffffffffffffffffffffffffffffffffffffffffffff1916827bffffffffffffffffffffffffffffffffffffffffffffffffffffffff19161480610c7457507f5b5e139f000000000000000000000000000000000000000000000000000000007bffffffffffffffffffffffffffffffffffffffffffffffffffffffff1916827bffffffffffffffffffffffffffffffffffffffffffffffffffffffff1916145b80610c845750610c8382611484565b5b9050919050565b600080610c97836114ee565b9050600073ffffffffffffffffffffffffffffffffffffffff168173ffffffffffffffffffffffffffffffffffffffff1603610d0a57826040517f7e273289000000000000000000000000000000000000000000000000000000008152600401610d0191906121a6565b60405180910390fd5b80915050919050565b60006004600083815260200190815260200160002060009054906101000a900473ffffffffffffffffffffffffffffffffffffffff169050919050565b600033905090565b610d65838383600161152b565b505050565b600080610d76846114ee565b9050600073ffffffffffffffffffffffffffffffffffffffff168373ffffffffffffffffffffffffffffffffffffffff1614610db857610db78184866116f0565b5b600073ffffffffffffffffffffffffffffffffffffffff168173ffffffffffffffffffffffffffffffffffffffff1614610e4957610dfa60008560008061152b565b6001600360008373ffffffffffffffffffffffffffffffffffffffff1673ffffffffffffffffffffffffffffffffffffffff168152602001908152602001600020600082825403925050819055505b600073ffffffffffffffffffffffffffffffffffffffff168573ffffffffffffffffffffffffffffffffffffffff1614610ecc576001600360008773ffffffffffffffffffffffffffffffffffffffff1673ffffffffffffffffffffffffffffffffffffffff168152602001908152602001600020600082825401925050819055505b846002600086815260200190815260200160002060006101000a81548173ffffffffffffffffffffffffffffffffffffffff021916908373ffffffffffffffffffffffffffffffffffffffff160217905550838573ffffffffffffffffffffffffffffffffffffffff168273ffffffffffffffffffffffffffffffffffffffff167fddf252ad1be2c89b69c2b068fc378daa952ba7f163c4a11628f55a4df523b3ef60405160405180910390a4809150509392505050565b610f8c610d50565b73ffffffffffffffffffffffffffffffffffffffff16610faa61084d565b73ffffffffffffffffffffffffffffffffffffffff161461100957610fcd610d50565b6040517f118cdaa700000000000000000000000000000000000000000000000000000000815260040161100091906120bd565b60405180910390fd5b565b6000600760009054906101000a900473ffffffffffffffffffffffffffffffffffffffff16905081600760006101000a81548173ffffffffffffffffffffffffffffffffffffffff021916908373ffffffffffffffffffffffffffffffffffffffff1602179055508173ffffffffffffffffffffffffffffffffffffffff168173ffffffffffffffffffffffffffffffffffffffff167f8be0079c531659141344cd1fd0a4f28419497f9722a3daafe3b4186f6b6457e060405160405180910390a35050565b600073ffffffffffffffffffffffffffffffffffffffff168273ffffffffffffffffffffffffffffffffffffffff160361114257816040517f5b08ba1800000000000000000000000000000000000000000000000000000000815260040161113991906120bd565b60405180910390fd5b80600560008573ffffffffffffffffffffffffffffffffffffffff1673ffffffffffffffffffffffffffffffffffffffff16815260200190815260200160002060008473ffffffffffffffffffffffffffffffffffffffff1673ffffffffffffffffffffffffffffffffffffffff16815260200190815260200160002060006101000a81548160ff0219169083151502179055508173ffffffffffffffffffffffffffffffffffffffff168373ffffffffffffffffffffffffffffffffffffffff167f17307eab39ab6107e8899845ad3d59bd9653f200f220920489ca2b5937696c31836040516112339190611f4c565b60405180910390a3505050565b60008373ffffffffffffffffffffffffffffffffffffffff163b11156113ea578273ffffffffffffffffffffffffffffffffffffffff1663150b7a02868685856040518563ffffffff1660e01b815260040161129f9493929190612688565b6020604051808303816000875af19250505080156112db57506040513d601f19601f820116820180604052508101906112d891906126e9565b60015b61135f573d806000811461130b576040519150601f19603f3d011682016040523d82523d6000602084013e611310565b606091505b50600081510361135757836040517f64a0ae9200000000000000000000000000000000000000000000000000000000815260040161134e91906120bd565b60405180910390fd5b805181602001fd5b63150b7a0260e01b7bffffffffffffffffffffffffffffffffffffffffffffffffffffffff1916817bffffffffffffffffffffffffffffffffffffffffffffffffffffffff1916146113e857836040517f64a0ae920000000000000000000000000000000000000000000000000000000081526004016113df91906120bd565b60405180910390fd5b505b5050505050565b606060405180602001604052806000815250905090565b606061141382610c8b565b50600061141e6113f1565b9050600081511161143e5760405180602001604052806000815250611469565b80611448846117b4565b60405160200161145992919061260f565b6040516020818303038152906040525b915050919050565b600061147d3383611882565b9050919050565b60007f01ffc9a7000000000000000000000000000000000000000000000000000000007bffffffffffffffffffffffffffffffffffffffffffffffffffffffff1916827bffffffffffffffffffffffffffffffffffffffffffffffffffffffff1916149050919050565b60006002600083815260200190815260200160002060009054906101000a900473ffffffffffffffffffffffffffffffffffffffff169050919050565b80806115645750600073ffffffffffffffffffffffffffffffffffffffff168273ffffffffffffffffffffffffffffffffffffffff1614155b1561169857600061157484610c8b565b9050600073ffffffffffffffffffffffffffffffffffffffff168373ffffffffffffffffffffffffffffffffffffffff16141580156115df57508273ffffffffffffffffffffffffffffffffffffffff168173ffffffffffffffffffffffffffffffffffffffff1614155b80156115f257506115f08184610a7d565b155b1561163457826040517fa9fbf51f00000000000000000000000000000000000000000000000000000000815260040161162b91906120bd565b60405180910390fd5b811561169657838573ffffffffffffffffffffffffffffffffffffffff168273ffffffffffffffffffffffffffffffffffffffff167f8c5be1e5ebec7d5bd14f71427d1e84f3dd0314c0f7b2291e5b200ac8c7c3b92560405160405180910390a45b505b836004600085815260200190815260200160002060006101000a81548173ffffffffffffffffffffffffffffffffffffffff021916908373ffffffffffffffffffffffffffffffffffffffff16021790555050505050565b6116fb838383611aed565b6117af57600073ffffffffffffffffffffffffffffffffffffffff168373ffffffffffffffffffffffffffffffffffffffff160361177057806040517f7e27328900000000000000000000000000000000000000000000000000000000815260040161176791906121a6565b60405180910390fd5b81816040517f177e802f0000000000000000000000000000000000000000000000000000000081526004016117a6929190612716565b60405180910390fd5b505050565b6060600060016117c384611bae565b01905060008167ffffffffffffffff8111156117e2576117e1612264565b5b6040519080825280601f01601f1916602001820160405280156118145781602001600182028036833780820191505090505b509050600082602001820190505b600115611877578080600190039150507f3031323334353637383961626364656600000000000000000000000000000000600a86061a8153600a858161186b5761186a61273f565b5b04945060008503611822575b819350505050919050565b60007f0000000000000000000000000000000000000000000000000000000000000000600854106118e8576040517f08c379a00000000000000000000000000000000000000000000000000000000081526004016118df906127ba565b60405180910390fd5b7f0000000000000000000000000000000000000000000000000000000000000000600960008573ffffffffffffffffffffffffffffffffffffffff1673ffffffffffffffffffffffffffffffffffffffff1681526020019081526020016000205410611989576040517f08c379a000000000000000000000000000000000000000000000000000000000815260040161198090612826565b60405180910390fd5b6008600081548092919061199c90612875565b9190505550600060085490506119b28482611d01565b6119bc8184611d1f565b600960008573ffffffffffffffffffffffffffffffffffffffff1673ffffffffffffffffffffffffffffffffffffffff1681526020019081526020016000206000815480929190611a0c90612875565b9190505550600073ffffffffffffffffffffffffffffffffffffffff16600a60009054906101000a900473ffffffffffffffffffffffffffffffffffffffff1673ffffffffffffffffffffffffffffffffffffffff1614611a9457611a93600a60009054906101000a900473ffffffffffffffffffffffffffffffffffffffff1682610558565b5b8373ffffffffffffffffffffffffffffffffffffffff16817f850e0fd6160a4a26f04306219130729d606202f82c2bfe863f6c7b5e04cb14a685604051611adb9190611ff7565b60405180910390a38091505092915050565b60008073ffffffffffffffffffffffffffffffffffffffff168373ffffffffffffffffffffffffffffffffffffffff1614158015611ba557508273ffffffffffffffffffffffffffffffffffffffff168473ffffffffffffffffffffffffffffffffffffffff161480611b665750611b658484610a7d565b5b80611ba457508273ffffffffffffffffffffffffffffffffffffffff16611b8c83610d13565b73ffffffffffffffffffffffffffffffffffffffff16145b5b90509392505050565b600080600090507a184f03e93ff9f4daa797ed6e38ed64bf6a1f0100000000000000008310611c0c577a184f03e93ff9f4daa797ed6e38ed64bf6a1f0100000000000000008381611c0257611c0161273f565b5b0492506040810190505b6d04ee2d6d415b85acef81000000008310611c49576d04ee2d6d415b85acef81000000008381611c3f57611c3e61273f565b5b0492506020810190505b662386f26fc100008310611c7857662386f26fc100008381611c6e57611c6d61273f565b5b0492506010810190505b6305f5e1008310611ca1576305f5e1008381611c9757611c9661273f565b5b0492506008810190505b6127108310611cc6576127108381611cbc57611cbb61273f565b5b0492506004810190505b60648310611ce95760648381611cdf57611cde61273f565b5b0492506002810190505b600a8310611cf8576001810190505b80915050919050565b611d1b828260405180602001604052806000815250611d7b565b5050565b80600660008481526020019081526020016000209081611d3f9190612a69565b507ff8e1a15aba9398e019f0b49df1a4fde98ee17ae345cb5f6b5e2c27f5033e8ce782604051611d6f91906121a6565b60405180910390a15050565b611d858383611d9f565b611d9a611d90610d50565b6000858585611240565b505050565b600073ffffffffffffffffffffffffffffffffffffffff168273ffffffffffffffffffffffffffffffffffffffff1603611e115760006040517f64a0ae92000000000000000000000000000000000000000000000000000000008152600401611e0891906120bd565b60405180910390fd5b6000611e1f83836000610d6a565b9050600073ffffffffffffffffffffffffffffffffffffffff168173ffffffffffffffffffffffffffffffffffffffff1614611e935760006040517f73c6ac6e000000000000000000000000000000000000000000000000000000008152600401611e8a91906120bd565b60405180910390fd5b505050565b6000604051905090565b600080fd5b600080fd5b60007fffffffff0000000000000000000000000000000000000000000000000000000082169050919050565b611ee181611eac565b8114611eec57600080fd5b50565b600081359050611efe81611ed8565b92915050565b600060208284031215611f1a57611f19611ea2565b5b6000611f2884828501611eef565b91505092915050565b60008115159050919050565b611f4681611f31565b82525050565b6000602082019050611f616000830184611f3d565b92915050565b600081519050919050565b600082825260208201905092915050565b60005b83811015611fa1578082015181840152602081019050611f86565b60008484015250505050565b6000601f19601f8301169050919050565b6000611fc982611f67565b611fd38185611f72565b9350611fe3818560208601611f83565b611fec81611fad565b840191505092915050565b600060208201905081810360008301526120118184611fbe565b905092915050565b6000819050919050565b61202c81612019565b811461203757600080fd5b50565b60008135905061204981612023565b92915050565b60006020828403121561206557612064611ea2565b5b60006120738482850161203a565b91505092915050565b600073ffffffffffffffffffffffffffffffffffffffff82169050919050565b60006120a78261207c565b9050919050565b6120b78161209c565b82525050565b60006020820190506120d260008301846120ae565b92915050565b6120e18161209c565b81146120ec57600080fd5b50565b6000813590506120fe816120d8565b92915050565b6000806040838503121561211b5761211a611ea2565b5b6000612129858286016120ef565b925050602061213a8582860161203a565b9150509250929050565b60008060006060848603121561215d5761215c611ea2565b5b600061216b868287016120ef565b935050602061217c868287016120ef565b925050604061218d8682870161203a565b9150509250925092565b6121a081612019565b82525050565b60006020820190506121bb6000830184612197565b92915050565b6000602082840312156121d7576121d6611ea2565b5b60006121e5848285016120ef565b91505092915050565b6121f781611f31565b811461220257600080fd5b50565b600081359050612214816121ee565b92915050565b6000806040838503121561223157612230611ea2565b5b600061223f858286016120ef565b925050602061225085828601612205565b9150509250929050565b600080fd5b600080fd5b7f4e487b7100000000000000000000000000000000000000000000000000000000600052604160045260246000fd5b61229c82611fad565b810181811067ffffffffffffffff821117156122bb576122ba612264565b5b80604052505050565b60006122ce611e98565b90506122da8282612293565b919050565b600067ffffffffffffffff8211156122fa576122f9612264565b5b61230382611fad565b9050602081019050919050565b82818337600083830152505050565b600061233261232d846122df565b6122c4565b90508281526020810184848401111561234e5761234d61225f565b5b612359848285612310565b509392505050565b600082601f8301126123765761237561225a565b5b813561238684826020860161231f565b91505092915050565b600080600080608085870312156123a9576123a8611ea2565b5b60006123b7878288016120ef565b94505060206123c8878288016120ef565b93505060406123d98782880161203a565b925050606085013567ffffffffffffffff8111156123fa576123f9611ea7565b5b61240687828801612361565b91505092959194509250565b6000806040838503121561242957612428611ea2565b5b6000612437858286016120ef565b9250506020612448858286016120ef565b9150509250929050565b600067ffffffffffffffff82111561246d5761246c612264565b5b61247682611fad565b9050602081019050919050565b600061249661249184612452565b6122c4565b9050828152602081018484840111156124b2576124b161225f565b5b6124bd848285612310565b509392505050565b600082601f8301126124da576124d961225a565b5b81356124ea848260208601612483565b91505092915050565b60006020828403121561250957612508611ea2565b5b600082013567ffffffffffffffff81111561252757612526611ea7565b5b612533848285016124c5565b91505092915050565b7f4e487b7100000000000000000000000000000000000000000000000000000000600052602260045260246000fd5b6000600282049050600182168061258357607f821691505b6020821081036125965761259561253c565b5b50919050565b60006060820190506125b160008301866120ae565b6125be6020830185612197565b6125cb60408301846120ae565b949350505050565b600081905092915050565b60006125e982611f67565b6125f381856125d3565b9350612603818560208601611f83565b80840191505092915050565b600061261b82856125de565b915061262782846125de565b91508190509392505050565b600081519050919050565b600082825260208201905092915050565b600061265a82612633565b612664818561263e565b9350612674818560208601611f83565b61267d81611fad565b840191505092915050565b600060808201905061269d60008301876120ae565b6126aa60208301866120ae565b6126b76040830185612197565b81810360608301526126c9818461264f565b905095945050505050565b6000815190506126e381611ed8565b92915050565b6000602082840312156126ff576126fe611ea2565b5b600061270d848285016126d4565b91505092915050565b600060408201905061272b60008301856120ae565b6127386020830184612197565b9392505050565b7f4e487b7100000000000000000000000000000000000000000000000000000000600052601260045260246000fd5b7f4d617820737570706c7920726561636865640000000000000000000000000000600082015250565b60006127a4601283611f72565b91506127af8261276e565b602082019050919050565b600060208201905081810360008301526127d381612797565b9050919050565b7f4d696e74206c696d697420706572206164647265737320726561636865640000600082015250565b6000612810601e83611f72565b915061281b826127da565b602082019050919050565b6000602082019050818103600083015261283f81612803565b9050919050565b7f4e487b7100000000000000000000000000000000000000000000000000000000600052601160045260246000fd5b600061288082612019565b91507fffffffffffffffffffffffffffffffffffffffffffffffffffffffffffffffff82036128b2576128b1612846565b5b600182019050919050565b60008190508160005260206000209050919050565b60006020601f8301049050919050565b600082821b905092915050565b60006008830261291f7fffffffffffffffffffffffffffffffffffffffffffffffffffffffffffffffff826128e2565b61292986836128e2565b95508019841693508086168417925050509392505050565b6000819050919050565b600061296661296161295c84612019565b612941565b612019565b9050919050565b6000819050919050565b6129808361294b565b61299461298c8261296d565b8484546128ef565b825550505050565b600090565b6129a961299c565b6129b4818484612977565b505050565b5b818110156129d8576129cd6000826129a1565b6001810190506129ba565b5050565b601f821115612a1d576129ee816128bd565b6129f7846128d2565b81016020851015612a06578190505b612a1a612a12856128d2565b8301826129b9565b50505b505050565b600082821c905092915050565b6000612a4060001984600802612a22565b1980831691505092915050565b6000612a598383612a2f565b9150826002028217905092915050565b612a7282611f67565b67ffffffffffffffff811115612a8b57612a8a612264565b5b612a95825461256b565b612aa08282856129dc565b600060209050601f831160018114612ad35760008415612ac1578287015190505b612acb8582612a4d565b865550612b33565b601f198416612ae1866128bd565b60005b82811015612b0957848901518255600182019150602085019450602081019050612ae4565b86831015612b265784890151612b22601f891682612a2f565b8355505b6001600288020188555050505b50505050505056fea2646970667358221220237ad64724f62059d7fc195e142690b99126be804948d136834d5f3fbffa0eb764736f6c634300081c0033",
  "linkReferences": {},
  "deployedLinkReferences": {}
}