{
  "_format": "hh-sol-artifact-1",
  "contractName": "MetaMintNFT",
  "sourceName": "contracts/MetaMintNFT.sol",
  "abi": [
    {
      "inputs": [
        {
          "internalType": "uint256",
          "name": "maxSupply",
          "type": "uint256"
        },
        {
          "internalType": "uint256",
          "name": "maxMintPerAddress",
          "type": "uint256"
        },
        {
          "internalType": "address",
          "name": "_marketplace",
          "type": "address"
        }
      ],
      "stateMutability": "nonpayable",
      "type": "constructor"
    },
    {
      "inputs": [
        {
          "internalType": "address",
          "name": "sender",
          "type": "address"
        },
        {
          "internalType": "uint256",
          "name": "tokenId",
          "type": "uint256"
        },
        {
          "internalType": "address",
          "name": "owner",
          "type": "address"
        }
      ],
      "name": "ERC721IncorrectOwner",
      "type": "error"
    },
    {
      "inputs": [
        {
          "internalType": "address",
          "name": "operator",
          "type": "address"
        },
        {
          "internalType": "uint256",
          "name": "tokenId",
          "type": "uint256"
        }
      ],
      "name": "ERC721InsufficientApproval",
      "type": "error"
    },
    {
      "inputs": [
        {
          "internalType": "address",
          "name": "approver",
          "type": "address"
        }
      ],
      "name": "ERC721InvalidApprover",
      "type": "error"
    },
    {
      "inputs": [
        {
          "internalType": "address",
          "name": "operator",
          "type": "address"
        }
      ],
      "name": "ERC721InvalidOperator",
      "type": "error"
    },
    {
      "inputs": [
        {
          "internalType": "address",
          "name": "owner",
          "type": "address"
        }
      ],
      "name": "ERC721InvalidOwner",
      "type": "error"
    },
    {
      "inputs": [
        {
          "internalType": "address",
          "name": "receiver",
          "type": "address"
        }
      ],
      "name": "ERC721InvalidReceiver",
      "type": "error"
    },
    {
      "inputs": [
        {
          "internalType": "address",
          "name": "sender",
          "type": "address"
        }
      ],
      "name": "ERC721InvalidSender",
      "type": "error"
    },
    {
      "inputs": [
        {
          "internalType": "uint256",
          "name": "tokenId",
          "type": "uint256"
        }
      ],
      "name": "ERC721NonexistentToken",
      "type": "error"
    },
    {
      "inputs": [
        {
          "internalType": "address",
          "name": "owner",
          "type": "address"
        }
      ],
      "name": "OwnableInvalidOwner",
      "type": "error"
    },
    {
      "inputs": [
        {
          "internalType": "address",
          "name": "account",
          "type": "address"
        }
      ],
      "name": "OwnableUnauthorizedAccount",
      "type": "error"
    },
    {
      "anonymous": false,
      "inputs": [
        {
          "indexed": true,
          "internalType": "address",
          "name": "owner",
          "type": "address"
        },
        {
          "indexed": true,
          "internalType": "address",
          "name": "approved",
          "type": "address"
        },
        {
          "indexed": true,
          "internalType": "uint256",
          "name": "tokenId",
          "type": "uint256"
        }
      ],
      "name": "Approval",
      "type": "event"
    },
    {
      "anonymous": false,
      "inputs": [
        {
          "indexed": true,
          "internalType": "address",
          "name": "owner",
          "type": "address"
        },
        {
          "indexed": true,
          "internalType": "address",
          "name": "operator",
          "type": "address"
        },
        {
          "indexed": false,
          "internalType": "bool",
          "name": "approved",
          "type": "bool"
        }
      ],
      "name": "ApprovalForAll",
      "type": "event"
    },
    {
      "anonymous": false,
      "inputs": [
        {
          "indexed": false,
          "internalType": "uint256",
          "name": "_fromTokenId",
          "type": "uint256"
        },
        {
          "indexed": false,
          "internalType": "uint256",
          "name": "_toTokenId",
          "type": "uint256"
        }
      ],
      "name": "BatchMetadataUpdate",
      "type": "event"
    },
    {
      "anonymous": false,
      "inputs": [
        {
          "indexed": false,
          "internalType": "uint256",
          "name": "_tokenId",
          "type": "uint256"
        }
      ],
      "name": "MetadataUpdate",
      "type": "event"
    },
    {
      "anonymous": false,
      "inputs": [
        {
          "indexed": true,
          "internalType": "address",
          "name": "previousOwner",
          "type": "address"
        },
        {
          "indexed": true,
          "internalType": "address",
          "name": "newOwner",
          "type": "address"
        }
      ],
      "name": "OwnershipTransferred",
      "type": "event"
    },
    {
      "anonymous": false,
      "inputs": [
        {
          "indexed": true,
          "internalType": "address",
          "name": "from",
          "type": "address"
        },
        {
          "indexed": true,
          "internalType": "address",
          "name": "to",
          "type": "address"
        },
        {
          "indexed": true,
          "internalType": "uint256",
          "name": "tokenId",
          "type": "uint256"
        }
      ],
      "name": "Transfer",
      "type": "event"
    },
    {
      "anonymous": false,
      "inputs": [
        {
          "indexed": true,
          "internalType": "uint256",
          "name": "tokenId",
          "type": "uint256"
        },
        {
          "indexed": true,
          "internalType": "address",
          "name": "owner",
          "type": "address"
        },
        {
          "indexed": false,
          "internalType": "string",
          "name": "tokenURI",
          "type": "string"
        }
      ],
      "name": "mintedNewNFT",
      "type": "event"
    },
    {
      "inputs": [],
      "name": "MAX_MINT_PER_ADDRESS",
      "outputs": [
        {
          "internalType": "uint256",
          "name": "",
          "type": "uint256"
        }
      ],
      "stateMutability": "view",
      "type": "function"
    },
    {
      "inputs": [],
      "name": "MAX_SUPPLY",
      "outputs": [
        {
          "internalType": "uint256",
          "name": "",
          "type": "uint256"
        }
      ],
      "stateMutability": "view",
      "type": "function"
    },
    {
      "inputs": [
        {
          "internalType": "address",
          "name": "to",
          "type": "address"
        },
        {
          "internalType": "uint256",
          "name": "tokenId",
          "type": "uint256"
        }
      ],
      "name": "approve",
      "outputs": [],
      "stateMutability": "nonpayable",
      "type": "function"
    },
    {
      "inputs": [
        {
          "internalType": "address",
          "name": "owner",
          "type": "address"
        }
      ],
      "name": "balanceOf",
      "outputs": [
        {
          "internalType": "uint256",
          "name": "",
          "type": "uint256"
        }
      ],
      "stateMutability": "view",
      "type": "function"
    },
    {
      "inputs": [
        {
          "internalType": "uint256",
          "name": "tokenId",
          "type": "uint256"
        }
      ],
      "name": "getApproved",
      "outputs": [
        {
          "internalType": "address",
          "name": "",
          "type": "address"
        }
      ],
      "stateMutability": "view",
      "type": "function"
    },
    {
      "inputs": [
        {
          "internalType": "address",
          "name": "owner",
          "type": "address"
        },
        {
          "internalType": "address",
          "name": "operator",
          "type": "address"
        }
      ],
      "name": "isApprovedForAll",
      "outputs": [
        {
          "internalType": "bool",
          "name": "",
          "type": "bool"
        }
      ],
      "stateMutability": "view",
      "type": "function"
    },
    {
      "inputs": [],
      "name": "marketplace",
      "outputs": [
        {
          "internalType": "address",
          "name": "",
          "type": "address"
        }
      ],
      "stateMutability": "view",
      "type": "function"
    },
    {
      "inputs": [
        {
          "internalType": "string",
          "name": "tokenURI",
          "type": "string"
        }
      ],
      "name": "mintNFT",
      "outputs": [
        {
          "internalType": "uint256",
          "name": "",
          "type": "uint256"
        }
      ],
      "stateMutability": "nonpayable",
      "type": "function"
    },
    {
      "inputs": [],
      "name": "name",
      "outputs": [
        {
          "internalType": "string",
          "name": "",
          "type": "string"
        }
      ],
      "stateMutability": "view",
      "type": "function"
    },
    {
      "inputs": [],
      "name": "owner",
      "outputs": [
        {
          "internalType": "address",
          "name": "",
          "type": "address"
        }
      ],
      "stateMutability": "view",
      "type": "function"
    },
    {
      "inputs": [
        {
          "internalType": "uint256",
          "name": "tokenId",
          "type": "uint256"
        }
      ],
      "name": "ownerOf",
      "outputs": [
        {
          "internalType": "address",
          "name": "",
          "type": "address"
        }
      ],
      "stateMutability": "view",
      "type": "function"
    },
    {
      "inputs": [],
      "name": "renounceOwnership",
      "outputs": [],
      "stateMutability": "nonpayable",
      "type": "function"
    },
    {
      "inputs": [
        {
          "internalType": "address",
          "name": "from",
          "type": "address"
        },
        {
          "internalType": "address",
          "name": "to",
          "type": "address"
        },
        {
          "internalType": "uint256",
          "name": "tokenId",
          "type": "uint256"
        }
      ],
      "name": "safeTransferFrom",
      "outputs": [],
      "stateMutability": "nonpayable",
      "type": "function"
    },
    {
      "inputs": [
        {
          "internalType": "address",
          "name": "from",
          "type": "address"
        },
        {
          "internalType": "address",
          "name": "to",
          "type": "address"
        },
        {
          "internalType": "uint256",
          "name": "tokenId",
          "type": "uint256"
        },
        {
          "internalType": "bytes",
          "name": "data",
          "type": "bytes"
        }
      ],
      "name": "safeTransferFrom",
      "outputs": [],
      "stateMutability": "nonpayable",
      "type": "function"
    },
    {
      "inputs": [
        {
          "internalType": "address",
          "name": "operator",
          "type": "address"
        },
        {
          "internalType": "bool",
          "name": "approved",
          "type": "bool"
        }
      ],
      "name": "setApprovalForAll",
      "outputs": [],
      "stateMutability": "nonpayable",
      "type": "function"
    },
    {
      "inputs": [
        {
          "internalType": "bytes4",
          "name": "interfaceId",
          "type": "bytes4"
        }
      ],
      "name": "supportsInterface",
      "outputs": [
        {
          "internalType": "bool",
          "name": "",
          "type": "bool"
        }
      ],
      "stateMutability": "view",
      "type": "function"
    },
    {
      "inputs": [],
      "name": "symbol",
      "outputs": [
        {
          "internalType": "string",
          "name": "",
          "type": "string"
        }
      ],
      "stateMutability": "view",
      "type": "function"
    },
    {
      "inputs": [
        {
          "internalType": "uint256",
          "name": "tokenId",
          "type": "uint256"
        }
      ],
      "name": "tokenURI",
      "outputs": [
        {
          "internalType": "string",
          "name": "",
          "type": "string"
        }
      ],
      "stateMutability": "view",
      "type": "function"
    },
    {
      "inputs": [
        {
          "internalType": "address",
          "name": "from",
          "type": "address"
        },
        {
          "internalType": "address",
          "name": "to",
          "type": "address"
        },
        {
          "internalType": "uint256",
          "name": "tokenId",
          "type": "uint256"
        }
      ],
      "name": "transferFrom",
      "outputs": [],
      "stateMutability": "nonpayable",
      "type": "function"
    },
    {
      "inputs": [
        {
          "internalType": "address",
          "name": "newOwner",
          "type": "address"
        }
      ],
      "name": "transferOwnership",
      "outputs": [],
      "stateMutability": "nonpayable",
      "type": "function"
    }
  ],
  "bytecode": "0x60c060405234801561001057600080fd5b506040516133a73803806133a7833981810160405281019061003291906103c4565b336040518060400160405280600b81526020017f4d6574614d696e744e46540000000000000000000000000000000000000000008152506040518060400160405280600581526020017f4d4d4e465400000000000000000000000000000000000000000000000000000081525081600090816100ae919061065d565b5080600190816100be919061065d565b505050600073ffffffffffffffffffffffffffffffffffffffff168173ffffffffffffffffffffffffffffffffffffffff16036101335760006040517f1e4fbdf700000000000000000000000000000000000000000000000000000000815260040161012a919061073e565b60405180910390fd5b6101428161026560201b60201c565b5060008311610186576040517f08c379a000000000000000000000000000000000000000000000000000000000815260040161017d906107dc565b60405180910390fd5b600082116101c9576040517f08c379a00000000000000000000000000000000000000000000000000000000081526004016101c09061086e565b60405180910390fd5b8282111561020c576040517f08c379a000000000000000000000000000000000000000000000000000000000815260040161020390610900565b60405180910390fd5b82608081815250508160a0818152505080600a60006101000a81548173ffffffffffffffffffffffffffffffffffffffff021916908373ffffffffffffffffffffffffffffffffffffffff160217905550505050610920565b6000600760009054906101000a900473ffffffffffffffffffffffffffffffffffffffff16905081600760006101000a81548173ffffffffffffffffffffffffffffffffffffffff021916908373ffffffffffffffffffffffffffffffffffffffff1602179055508173ffffffffffffffffffffffffffffffffffffffff168173ffffffffffffffffffffffffffffffffffffffff167f8be0079c531659141344cd1fd0a4f28419497f9722a3daafe3b4186f6b6457e060405160405180910390a35050565b600080fd5b6000819050919050565b61034381610330565b811461034e57600080fd5b50565b6000815190506103608161033a565b92915050565b600073ffffffffffffffffffffffffffffffffffffffff82169050919050565b600061039182610366565b9050919050565b6103a181610386565b81146103ac57600080fd5b50565b6000815190506103be81610398565b92915050565b6000806000606084860312156103dd576103dc61032b565b5b60006103eb86828701610351565b93505060206103fc86828701610351565b925050604061040d868287016103af565b9150509250925092565b600081519050919050565b7f4e487b7100000000000000000000000000000000000000000000000000000000600052604160045260246000fd5b7f4e487b7100000000000000000000000000000000000000000000000000000000600052602260045260246000fd5b6000600282049050600182168061049857607f821691505b6020821081036104ab576104aa610451565b5b50919050565b60008190508160005260206000209050919050565b60006020601f8301049050919050565b600082821b905092915050565b6000600883026105137fffffffffffffffffffffffffffffffffffffffffffffffffffffffffffffffff826104d6565b61051d86836104d6565b95508019841693508086168417925050509392505050565b6000819050919050565b600061055a61055561055084610330565b610535565b610330565b9050919050565b6000819050919050565b6105748361053f565b61058861058082610561565b8484546104e3565b825550505050565b600090565b61059d610590565b6105a881848461056b565b505050565b5b818110156105cc576105c1600082610595565b6001810190506105ae565b5050565b601f821115610611576105e2816104b1565b6105eb846104c6565b810160208510156105fa578190505b61060e610606856104c6565b8301826105ad565b50505b505050565b600082821c905092915050565b600061063460001984600802610616565b1980831691505092915050565b600061064d8383610623565b9150826002028217905092915050565b61066682610417565b67ffffffffffffffff81111561067f5761067e610422565b5b6106898254610480565b6106948282856105d0565b600060209050601f8311600181146106c757600084156106b5578287015190505b6106bf8582610641565b865550610727565b601f1984166106d5866104b1565b60005b828110156106fd578489015182556001820191506020850194506020810190506106d8565b8683101561071a5784890151610716601f891682610623565b8355505b6001600288020188555050505b505050505050565b61073881610386565b82525050565b6000602082019050610753600083018461072f565b92915050565b600082825260208201905092915050565b7f4d617820737570706c79206d7573742062652067726561746572207468616e2060008201527f3000000000000000000000000000000000000000000000000000000000000000602082015250565b60006107c6602183610759565b91506107d18261076a565b604082019050919050565b600060208201905081810360008301526107f5816107b9565b9050919050565b7f4d6178206d696e74207065722061646472657373206d7573742062652067726560008201527f61746572207468616e2030000000000000000000000000000000000000000000602082015250565b6000610858602b83610759565b9150610863826107fc565b604082019050919050565b600060208201905081810360008301526108878161084b565b9050919050565b7f4d6178206d696e74207065722061646472657373206d757374206265206c6f7760008201527f6572207468616e206d617820737570706c790000000000000000000000000000602082015250565b60006108ea603283610759565b91506108f58261088e565b604082019050919050565b60006020820190508181036000830152610919816108dd565b9050919050565b60805160a051612a54610953600039600081816106340152610b080152600081816106100152610aa40152612a546000f3fe608060405234801561001057600080fd5b506004361061012c5760003560e01c8063715018a6116100ad578063b88d4fde11610071578063b88d4fde1461031f578063c87b56dd1461033b578063e985e9c51461036b578063f2fde38b1461039b578063fb37e883146103b75761012c565b8063715018a61461029f5780638da5cb5b146102a957806395d89b41146102c7578063a22cb465146102e5578063abc8c7af146103015761012c565b806332cb6b0c116100f457806332cb6b0c146101e75780633acd6cb21461020557806342842e0e146102235780636352211e1461023f57806370a082311461026f5761012c565b806301ffc9a71461013157806306fdde0314610161578063081812fc1461017f578063095ea7b3146101af57806323b872dd146101cb575b600080fd5b61014b60048036038101906101469190611de7565b6103e7565b6040516101589190611e2f565b60405180910390f35b610169610448565b6040516101769190611eda565b60405180910390f35b61019960048036038101906101949190611f32565b6104da565b6040516101a69190611fa0565b60405180910390f35b6101c960048036038101906101c49190611fe7565b6104f6565b005b6101e560048036038101906101e09190612027565b61050c565b005b6101ef61060e565b6040516101fc9190612089565b60405180910390f35b61020d610632565b60405161021a9190612089565b60405180910390f35b61023d60048036038101906102389190612027565b610656565b005b61025960048036038101906102549190611f32565b610676565b6040516102669190611fa0565b60405180910390f35b610289600480360381019061028491906120a4565b610688565b6040516102969190612089565b60405180910390f35b6102a7610742565b005b6102b1610756565b6040516102be9190611fa0565b60405180910390f35b6102cf610780565b6040516102dc9190611eda565b60405180910390f35b6102ff60048036038101906102fa91906120fd565b610812565b005b610309610828565b6040516103169190611fa0565b60405180910390f35b61033960048036038101906103349190612272565b61084e565b005b61035560048036038101906103509190611f32565b610873565b6040516103629190611eda565b60405180910390f35b610385600480360381019061038091906122f5565b610986565b6040516103929190611e2f565b60405180910390f35b6103b560048036038101906103b091906120a4565b610a1a565b005b6103d160048036038101906103cc91906123d6565b610aa0565b6040516103de9190612089565b60405180910390f35b6000634906490660e01b7bffffffffffffffffffffffffffffffffffffffffffffffffffffffff1916827bffffffffffffffffffffffffffffffffffffffffffffffffffffffff19161480610441575061044082610d0a565b5b9050919050565b6060600080546104579061244e565b80601f01602080910402602001604051908101604052809291908181526020018280546104839061244e565b80156104d05780601f106104a5576101008083540402835291602001916104d0565b820191906000526020600020905b8154815290600101906020018083116104b357829003601f168201915b5050505050905090565b60006104e582610dec565b506104ef82610e74565b9050919050565b6105088282610503610eb1565b610eb9565b5050565b600073ffffffffffffffffffffffffffffffffffffffff168273ffffffffffffffffffffffffffffffffffffffff160361057e5760006040517f64a0ae920000000000000000000000000000000000000000000000000000000081526004016105759190611fa0565b60405180910390fd5b6000610592838361058d610eb1565b610ecb565b90508373ffffffffffffffffffffffffffffffffffffffff168173ffffffffffffffffffffffffffffffffffffffff1614610608578382826040517f64283d7b0000000000000000000000000000000000000000000000000000000081526004016105ff9392919061247f565b60405180910390fd5b50505050565b7f000000000000000000000000000000000000000000000000000000000000000081565b7f000000000000000000000000000000000000000000000000000000000000000081565b6106718383836040518060200160405280600081525061084e565b505050565b600061068182610dec565b9050919050565b60008073ffffffffffffffffffffffffffffffffffffffff168273ffffffffffffffffffffffffffffffffffffffff16036106fb5760006040517f89c62b640000000000000000000000000000000000000000000000000000000081526004016106f29190611fa0565b60405180910390fd5b600360008373ffffffffffffffffffffffffffffffffffffffff1673ffffffffffffffffffffffffffffffffffffffff168152602001908152602001600020549050919050565b61074a6110e5565b610754600061116c565b565b6000600760009054906101000a900473ffffffffffffffffffffffffffffffffffffffff16905090565b60606001805461078f9061244e565b80601f01602080910402602001604051908101604052809291908181526020018280546107bb9061244e565b80156108085780601f106107dd57610100808354040283529160200191610808565b820191906000526020600020905b8154815290600101906020018083116107eb57829003601f168201915b5050505050905090565b61082461081d610eb1565b8383611232565b5050565b600a60009054906101000a900473ffffffffffffffffffffffffffffffffffffffff1681565b61085984848461050c565b61086d610864610eb1565b858585856113a1565b50505050565b606061087e82610dec565b50600060066000848152602001908152602001600020805461089f9061244e565b80601f01602080910402602001604051908101604052809291908181526020018280546108cb9061244e565b80156109185780601f106108ed57610100808354040283529160200191610918565b820191906000526020600020905b8154815290600101906020018083116108fb57829003601f168201915b505050505090506000610929611552565b9050600081510361093e578192505050610981565b60008251111561097357808260405160200161095b9291906124f2565b60405160208183030381529060405292505050610981565b61097c84611569565b925050505b919050565b6000600560008473ffffffffffffffffffffffffffffffffffffffff1673ffffffffffffffffffffffffffffffffffffffff16815260200190815260200160002060008373ffffffffffffffffffffffffffffffffffffffff1673ffffffffffffffffffffffffffffffffffffffff16815260200190815260200160002060009054906101000a900460ff16905092915050565b610a226110e5565b600073ffffffffffffffffffffffffffffffffffffffff168173ffffffffffffffffffffffffffffffffffffffff1603610a945760006040517f1e4fbdf7000000000000000000000000000000000000000000000000000000008152600401610a8b9190611fa0565b60405180910390fd5b610a9d8161116c565b50565b60007f000000000000000000000000000000000000000000000000000000000000000060085410610b06576040517f08c379a0000000000000000000000000000000000000000000000000000000008152600401610afd90612562565b60405180910390fd5b7f0000000000000000000000000000000000000000000000000000000000000000600960003373ffffffffffffffffffffffffffffffffffffffff1673ffffffffffffffffffffffffffffffffffffffff1681526020019081526020016000205410610ba7576040517f08c379a0000000000000000000000000000000000000000000000000000000008152600401610b9e906125ce565b60405180910390fd5b60086000815480929190610bba9061261d565b919050555060006008549050610bd033826115d2565b610bda81846115f0565b600960003373ffffffffffffffffffffffffffffffffffffffff1673ffffffffffffffffffffffffffffffffffffffff1681526020019081526020016000206000815480929190610c2a9061261d565b9190505550600073ffffffffffffffffffffffffffffffffffffffff16600a60009054906101000a900473ffffffffffffffffffffffffffffffffffffffff1673ffffffffffffffffffffffffffffffffffffffff1614610cb257610cb1600a60009054906101000a900473ffffffffffffffffffffffffffffffffffffffff16826104f6565b5b3373ffffffffffffffffffffffffffffffffffffffff16817f95ee4b5032dc81f4a2051821041e3dbdeb7cbd20bf3c7dd4802a047c24ecb4ba85604051610cf99190611eda565b60405180910390a380915050919050565b60007f80ac58cd000000000000000000000000000000000000000000000000000000007bffffffffffffffffffffffffffffffffffffffffffffffffffffffff1916827bffffffffffffffffffffffffffffffffffffffffffffffffffffffff19161480610dd557507f5b5e139f000000000000000000000000000000000000000000000000000000007bffffffffffffffffffffffffffffffffffffffffffffffffffffffff1916827bffffffffffffffffffffffffffffffffffffffffffffffffffffffff1916145b80610de55750610de48261164c565b5b9050919050565b600080610df8836116b6565b9050600073ffffffffffffffffffffffffffffffffffffffff168173ffffffffffffffffffffffffffffffffffffffff1603610e6b57826040517f7e273289000000000000000000000000000000000000000000000000000000008152600401610e629190612089565b60405180910390fd5b80915050919050565b60006004600083815260200190815260200160002060009054906101000a900473ffffffffffffffffffffffffffffffffffffffff169050919050565b600033905090565b610ec683838360016116f3565b505050565b600080610ed7846116b6565b9050600073ffffffffffffffffffffffffffffffffffffffff168373ffffffffffffffffffffffffffffffffffffffff1614610f1957610f188184866118b8565b5b600073ffffffffffffffffffffffffffffffffffffffff168173ffffffffffffffffffffffffffffffffffffffff1614610faa57610f5b6000856000806116f3565b6001600360008373ffffffffffffffffffffffffffffffffffffffff1673ffffffffffffffffffffffffffffffffffffffff168152602001908152602001600020600082825403925050819055505b600073ffffffffffffffffffffffffffffffffffffffff168573ffffffffffffffffffffffffffffffffffffffff161461102d576001600360008773ffffffffffffffffffffffffffffffffffffffff1673ffffffffffffffffffffffffffffffffffffffff168152602001908152602001600020600082825401925050819055505b846002600086815260200190815260200160002060006101000a81548173ffffffffffffffffffffffffffffffffffffffff021916908373ffffffffffffffffffffffffffffffffffffffff160217905550838573ffffffffffffffffffffffffffffffffffffffff168273ffffffffffffffffffffffffffffffffffffffff167fddf252ad1be2c89b69c2b068fc378daa952ba7f163c4a11628f55a4df523b3ef60405160405180910390a4809150509392505050565b6110ed610eb1565b73ffffffffffffffffffffffffffffffffffffffff1661110b610756565b73ffffffffffffffffffffffffffffffffffffffff161461116a5761112e610eb1565b6040517f118cdaa70000000000000000000000000000000000000000000000000000000081526004016111619190611fa0565b60405180910390fd5b565b6000600760009054906101000a900473ffffffffffffffffffffffffffffffffffffffff16905081600760006101000a81548173ffffffffffffffffffffffffffffffffffffffff021916908373ffffffffffffffffffffffffffffffffffffffff1602179055508173ffffffffffffffffffffffffffffffffffffffff168173ffffffffffffffffffffffffffffffffffffffff167f8be0079c531659141344cd1fd0a4f28419497f9722a3daafe3b4186f6b6457e060405160405180910390a35050565b600073ffffffffffffffffffffffffffffffffffffffff168273ffffffffffffffffffffffffffffffffffffffff16036112a357816040517f5b08ba1800000000000000000000000000000000000000000000000000000000815260040161129a9190611fa0565b60405180910390fd5b80600560008573ffffffffffffffffffffffffffffffffffffffff1673ffffffffffffffffffffffffffffffffffffffff16815260200190815260200160002060008473ffffffffffffffffffffffffffffffffffffffff1673ffffffffffffffffffffffffffffffffffffffff16815260200190815260200160002060006101000a81548160ff0219169083151502179055508173ffffffffffffffffffffffffffffffffffffffff168373ffffffffffffffffffffffffffffffffffffffff167f17307eab39ab6107e8899845ad3d59bd9653f200f220920489ca2b5937696c31836040516113949190611e2f565b60405180910390a3505050565b60008373ffffffffffffffffffffffffffffffffffffffff163b111561154b578273ffffffffffffffffffffffffffffffffffffffff1663150b7a02868685856040518563ffffffff1660e01b815260040161140094939291906126ba565b6020604051808303816000875af192505050801561143c57506040513d601f19601f82011682018060405250810190611439919061271b565b60015b6114c0573d806000811461146c576040519150601f19603f3d011682016040523d82523d6000602084013e611471565b606091505b5060008151036114b857836040517f64a0ae920000000000000000000000000000000000000000000000000000000081526004016114af9190611fa0565b60405180910390fd5b805181602001fd5b63150b7a0260e01b7bffffffffffffffffffffffffffffffffffffffffffffffffffffffff1916817bffffffffffffffffffffffffffffffffffffffffffffffffffffffff19161461154957836040517f64a0ae920000000000000000000000000000000000000000000000000000000081526004016115409190611fa0565b60405180910390fd5b505b5050505050565b606060405180602001604052806000815250905090565b606061157482610dec565b50600061157f611552565b9050600081511161159f57604051806020016040528060008152506115ca565b806115a98461197c565b6040516020016115ba9291906124f2565b6040516020818303038152906040525b915050919050565b6115ec828260405180602001604052806000815250611a4a565b5050565b8060066000848152602001908152602001600020908161161091906128f4565b507ff8e1a15aba9398e019f0b49df1a4fde98ee17ae345cb5f6b5e2c27f5033e8ce7826040516116409190612089565b60405180910390a15050565b60007f01ffc9a7000000000000000000000000000000000000000000000000000000007bffffffffffffffffffffffffffffffffffffffffffffffffffffffff1916827bffffffffffffffffffffffffffffffffffffffffffffffffffffffff1916149050919050565b60006002600083815260200190815260200160002060009054906101000a900473ffffffffffffffffffffffffffffffffffffffff169050919050565b808061172c5750600073ffffffffffffffffffffffffffffffffffffffff168273ffffffffffffffffffffffffffffffffffffffff1614155b1561186057600061173c84610dec565b9050600073ffffffffffffffffffffffffffffffffffffffff168373ffffffffffffffffffffffffffffffffffffffff16141580156117a757508273ffffffffffffffffffffffffffffffffffffffff168173ffffffffffffffffffffffffffffffffffffffff1614155b80156117ba57506117b88184610986565b155b156117fc57826040517fa9fbf51f0000000000000000000000000000000000000000000000000000000081526004016117f39190611fa0565b60405180910390fd5b811561185e57838573ffffffffffffffffffffffffffffffffffffffff168273ffffffffffffffffffffffffffffffffffffffff167f8c5be1e5ebec7d5bd14f71427d1e84f3dd0314c0f7b2291e5b200ac8c7c3b92560405160405180910390a45b505b836004600085815260200190815260200160002060006101000a81548173ffffffffffffffffffffffffffffffffffffffff021916908373ffffffffffffffffffffffffffffffffffffffff16021790555050505050565b6118c3838383611a6e565b61197757600073ffffffffffffffffffffffffffffffffffffffff168373ffffffffffffffffffffffffffffffffffffffff160361193857806040517f7e27328900000000000000000000000000000000000000000000000000000000815260040161192f9190612089565b60405180910390fd5b81816040517f177e802f00000000000000000000000000000000000000000000000000000000815260040161196e9291906129c6565b60405180910390fd5b505050565b60606000600161198b84611b2f565b01905060008167ffffffffffffffff8111156119aa576119a9612147565b5b6040519080825280601f01601f1916602001820160405280156119dc5781602001600182028036833780820191505090505b509050600082602001820190505b600115611a3f578080600190039150507f3031323334353637383961626364656600000000000000000000000000000000600a86061a8153600a8581611a3357611a326129ef565b5b049450600085036119ea575b819350505050919050565b611a548383611c82565b611a69611a5f610eb1565b60008585856113a1565b505050565b60008073ffffffffffffffffffffffffffffffffffffffff168373ffffffffffffffffffffffffffffffffffffffff1614158015611b2657508273ffffffffffffffffffffffffffffffffffffffff168473ffffffffffffffffffffffffffffffffffffffff161480611ae75750611ae68484610986565b5b80611b2557508273ffffffffffffffffffffffffffffffffffffffff16611b0d83610e74565b73ffffffffffffffffffffffffffffffffffffffff16145b5b90509392505050565b600080600090507a184f03e93ff9f4daa797ed6e38ed64bf6a1f0100000000000000008310611b8d577a184f03e93ff9f4daa797ed6e38ed64bf6a1f0100000000000000008381611b8357611b826129ef565b5b0492506040810190505b6d04ee2d6d415b85acef81000000008310611bca576d04ee2d6d415b85acef81000000008381611bc057611bbf6129ef565b5b0492506020810190505b662386f26fc100008310611bf957662386f26fc100008381611bef57611bee6129ef565b5b0492506010810190505b6305f5e1008310611c22576305f5e1008381611c1857611c176129ef565b5b0492506008810190505b6127108310611c47576127108381611c3d57611c3c6129ef565b5b0492506004810190505b60648310611c6a5760648381611c6057611c5f6129ef565b5b0492506002810190505b600a8310611c79576001810190505b80915050919050565b600073ffffffffffffffffffffffffffffffffffffffff168273ffffffffffffffffffffffffffffffffffffffff1603611cf45760006040517f64a0ae92000000000000000000000000000000000000000000000000000000008152600401611ceb9190611fa0565b60405180910390fd5b6000611d0283836000610ecb565b9050600073ffffffffffffffffffffffffffffffffffffffff168173ffffffffffffffffffffffffffffffffffffffff1614611d765760006040517f73c6ac6e000000000000000000000000000000000000000000000000000000008152600401611d6d9190611fa0565b60405180910390fd5b505050565b6000604051905090565b600080fd5b600080fd5b60007fffffffff0000000000000000000000000000000000000000000000000000000082169050919050565b611dc481611d8f565b8114611dcf57600080fd5b50565b600081359050611de181611dbb565b92915050565b600060208284031215611dfd57611dfc611d85565b5b6000611e0b84828501611dd2565b91505092915050565b60008115159050919050565b611e2981611e14565b82525050565b6000602082019050611e446000830184611e20565b92915050565b600081519050919050565b600082825260208201905092915050565b60005b83811015611e84578082015181840152602081019050611e69565b60008484015250505050565b6000601f19601f8301169050919050565b6000611eac82611e4a565b611eb68185611e55565b9350611ec6818560208601611e66565b611ecf81611e90565b840191505092915050565b60006020820190508181036000830152611ef48184611ea1565b905092915050565b6000819050919050565b611f0f81611efc565b8114611f1a57600080fd5b50565b600081359050611f2c81611f06565b92915050565b600060208284031215611f4857611f47611d85565b5b6000611f5684828501611f1d565b91505092915050565b600073ffffffffffffffffffffffffffffffffffffffff82169050919050565b6000611f8a82611f5f565b9050919050565b611f9a81611f7f565b82525050565b6000602082019050611fb56000830184611f91565b92915050565b611fc481611f7f565b8114611fcf57600080fd5b50565b600081359050611fe181611fbb565b92915050565b60008060408385031215611ffe57611ffd611d85565b5b600061200c85828601611fd2565b925050602061201d85828601611f1d565b9150509250929050565b6000806000606084860312156120405761203f611d85565b5b600061204e86828701611fd2565b935050602061205f86828701611fd2565b925050604061207086828701611f1d565b9150509250925092565b61208381611efc565b82525050565b600060208201905061209e600083018461207a565b92915050565b6000602082840312156120ba576120b9611d85565b5b60006120c884828501611fd2565b91505092915050565b6120da81611e14565b81146120e557600080fd5b50565b6000813590506120f7816120d1565b92915050565b6000806040838503121561211457612113611d85565b5b600061212285828601611fd2565b9250506020612133858286016120e8565b9150509250929050565b600080fd5b600080fd5b7f4e487b7100000000000000000000000000000000000000000000000000000000600052604160045260246000fd5b61217f82611e90565b810181811067ffffffffffffffff8211171561219e5761219d612147565b5b80604052505050565b60006121b1611d7b565b90506121bd8282612176565b919050565b600067ffffffffffffffff8211156121dd576121dc612147565b5b6121e682611e90565b9050602081019050919050565b82818337600083830152505050565b6000612215612210846121c2565b6121a7565b90508281526020810184848401111561223157612230612142565b5b61223c8482856121f3565b509392505050565b600082601f8301126122595761225861213d565b5b8135612269848260208601612202565b91505092915050565b6000806000806080858703121561228c5761228b611d85565b5b600061229a87828801611fd2565b94505060206122ab87828801611fd2565b93505060406122bc87828801611f1d565b925050606085013567ffffffffffffffff8111156122dd576122dc611d8a565b5b6122e987828801612244565b91505092959194509250565b6000806040838503121561230c5761230b611d85565b5b600061231a85828601611fd2565b925050602061232b85828601611fd2565b9150509250929050565b600067ffffffffffffffff8211156123505761234f612147565b5b61235982611e90565b9050602081019050919050565b600061237961237484612335565b6121a7565b90508281526020810184848401111561239557612394612142565b5b6123a08482856121f3565b509392505050565b600082601f8301126123bd576123bc61213d565b5b81356123cd848260208601612366565b91505092915050565b6000602082840312156123ec576123eb611d85565b5b600082013567ffffffffffffffff81111561240a57612409611d8a565b5b612416848285016123a8565b91505092915050565b7f4e487b7100000000000000000000000000000000000000000000000000000000600052602260045260246000fd5b6000600282049050600182168061246657607f821691505b6020821081036124795761247861241f565b5b50919050565b60006060820190506124946000830186611f91565b6124a1602083018561207a565b6124ae6040830184611f91565b949350505050565b600081905092915050565b60006124cc82611e4a565b6124d681856124b6565b93506124e6818560208601611e66565b80840191505092915050565b60006124fe82856124c1565b915061250a82846124c1565b91508190509392505050565b7f4d617820737570706c7920726561636865640000000000000000000000000000600082015250565b600061254c601283611e55565b915061255782612516565b602082019050919050565b6000602082019050818103600083015261257b8161253f565b9050919050565b7f4d696e74206c696d697420706572206164647265737320726561636865640000600082015250565b60006125b8601e83611e55565b91506125c382612582565b602082019050919050565b600060208201905081810360008301526125e7816125ab565b9050919050565b7f4e487b7100000000000000000000000000000000000000000000000000000000600052601160045260246000fd5b600061262882611efc565b91507fffffffffffffffffffffffffffffffffffffffffffffffffffffffffffffffff820361265a576126596125ee565b5b600182019050919050565b600081519050919050565b600082825260208201905092915050565b600061268c82612665565b6126968185612670565b93506126a6818560208601611e66565b6126af81611e90565b840191505092915050565b60006080820190506126cf6000830187611f91565b6126dc6020830186611f91565b6126e9604083018561207a565b81810360608301526126fb8184612681565b905095945050505050565b60008151905061271581611dbb565b92915050565b60006020828403121561273157612730611d85565b5b600061273f84828501612706565b91505092915050565b60008190508160005260206000209050919050565b60006020601f8301049050919050565b600082821b905092915050565b6000600883026127aa7fffffffffffffffffffffffffffffffffffffffffffffffffffffffffffffffff8261276d565b6127b4868361276d565b95508019841693508086168417925050509392505050565b6000819050919050565b60006127f16127ec6127e784611efc565b6127cc565b611efc565b9050919050565b6000819050919050565b61280b836127d6565b61281f612817826127f8565b84845461277a565b825550505050565b600090565b612834612827565b61283f818484612802565b505050565b5b818110156128635761285860008261282c565b600181019050612845565b5050565b601f8211156128a85761287981612748565b6128828461275d565b81016020851015612891578190505b6128a561289d8561275d565b830182612844565b50505b505050565b600082821c905092915050565b60006128cb600019846008026128ad565b1980831691505092915050565b60006128e483836128ba565b9150826002028217905092915050565b6128fd82611e4a565b67ffffffffffffffff81111561291657612915612147565b5b612920825461244e565b61292b828285612867565b600060209050601f83116001811461295e576000841561294c578287015190505b61295685826128d8565b8655506129be565b601f19841661296c86612748565b60005b828110156129945784890151825560018201915060208501945060208101905061296f565b868310156129b157848901516129ad601f8916826128ba565b8355505b6001600288020188555050505b505050505050565b60006040820190506129db6000830185611f91565b6129e8602083018461207a565b9392505050565b7f4e487b7100000000000000000000000000000000000000000000000000000000600052601260045260246000fdfea26469706673582212208db470f55c92c7ae48cd98a709db0f278d4d2a1a10a9c7ac4293f3f0cca7c1f464736f6c634300081c0033",
  "linkReferences": {},
  "deployedLinkReferences": {}
}